{
  "transactions": [
    {
      "hash": "0xd416f0c21511fc59ab966f7f195f1ca4cd621b9d8db1eb96d284808e9870f933",
      "transactionType": "CALL",
      "contractName": "MockStablecoin",
      "contractAddress": "0x58c414bd85bf1d39985476dfa5fbd59af356e8f0",
      "function": "mint(address,uint256)",
      "arguments": [
        "0xF30180b9CeC36f5a3762332c0f102Fe8C024D64e",
        "101000000000"
      ],
      "transaction": {
        "from": "0xf30180b9cec36f5a3762332c0f102fe8c024d64e",
        "to": "0x58c414bd85bf1d39985476dfa5fbd59af356e8f0",
        "gas": "0xc57e",
        "value": "0x0",
        "input": "0x40c10f19000000000000000000000000f30180b9cec36f5a3762332c0f102fe8c024d64e000000000000000000000000000000000000000000000000000000178411b200",
        "nonce": "0x5e",
        "chainId": "0x515"
      },
      "additionalContracts": [],
      "isFixedGasLimit": false
    },
    {
      "hash": "0x59903813a394597d653c0c0bb43fae07f2ce9f9892c4d4588749b42c314c52e3",
      "transactionType": "CALL",
      "contractName": "MockStablecoin",
      "contractAddress": "0x2170d1ec7b1392611323a4c1793e580349cc5cc0",
      "function": "mint(address,uint256)",
      "arguments": [
        "0xF30180b9CeC36f5a3762332c0f102Fe8C024D64e",
        "101000000000"
      ],
      "transaction": {
        "from": "0xf30180b9cec36f5a3762332c0f102fe8c024d64e",
        "to": "0x2170d1ec7b1392611323a4c1793e580349cc5cc0",
        "gas": "0xc57e",
        "value": "0x0",
        "input": "0x40c10f19000000000000000000000000f30180b9cec36f5a3762332c0f102fe8c024d64e000000000000000000000000000000000000000000000000000000178411b200",
        "nonce": "0x5f",
        "chainId": "0x515"
      },
      "additionalContracts": [],
      "isFixedGasLimit": false
    },
    {
      "hash": "0x033cb5e236b92121a1cff18881837a28eb6233f2fae5dff07e2b0f8c969b1a4a",
      "transactionType": "CALL",
      "contractName": "MockStablecoin",
      "contractAddress": "0x2170d1ec7b1392611323a4c1793e580349cc5cc0",
      "function": "approve(address,uint256)",
      "arguments": [
        "0x000000000022D473030F116dDEE9F6B43aC78BA3",
        "115792089237316195423570985008687907853269984665640564039457584007913129639935"
      ],
      "transaction": {
        "from": "0xf30180b9cec36f5a3762332c0f102fe8c024d64e",
        "to": "0x2170d1ec7b1392611323a4c1793e580349cc5cc0",
        "gas": "0x9202",
        "value": "0x0",
        "input": "0x095ea7b3000000000000000000000000000000000022d473030f116ddee9f6b43ac78ba3ffffffffffffffffffffffffffffffffffffffffffffffffffffffffffffffff",
        "nonce": "0x60",
        "chainId": "0x515"
      },
      "additionalContracts": [],
      "isFixedGasLimit": false
    },
    {
      "hash": "0x7d34e50d298482c9ff148d094163f8135f237555ecfb338c37e6e26d9f92ea49",
      "transactionType": "CALL",
      "contractName": "MockStablecoin",
      "contractAddress": "0x58c414bd85bf1d39985476dfa5fbd59af356e8f0",
      "function": "approve(address,uint256)",
      "arguments": [
        "0x000000000022D473030F116dDEE9F6B43aC78BA3",
        "115792089237316195423570985008687907853269984665640564039457584007913129639935"
      ],
      "transaction": {
        "from": "0xf30180b9cec36f5a3762332c0f102fe8c024d64e",
        "to": "0x58c414bd85bf1d39985476dfa5fbd59af356e8f0",
        "gas": "0x9202",
        "value": "0x0",
        "input": "0x095ea7b3000000000000000000000000000000000022d473030f116ddee9f6b43ac78ba3ffffffffffffffffffffffffffffffffffffffffffffffffffffffffffffffff",
        "nonce": "0x61",
        "chainId": "0x515"
      },
      "additionalContracts": [],
      "isFixedGasLimit": false
    },
    {
      "hash": "0x926a89a36fae9c9ec994b9f9d9b36d5d1f70b33745f9ca6232719b965b8bb0c0",
      "transactionType": "CALL",
      "contractName": null,
      "contractAddress": "0x000000000022d473030f116ddee9f6b43ac78ba3",
      "function": "approve(address,address,uint160,uint48)",
      "arguments": [
        "0x2170d1eC7B1392611323A4c1793e580349CC5CC0",
        "0xf969Aee60879C54bAAed9F3eD26147Db216Fd664",
        "1461501637330902918203684832716283019655932542975",
        "281474976710655"
      ],
      "transaction": {
        "from": "0xf30180b9cec36f5a3762332c0f102fe8c024d64e",
        "to": "0x000000000022d473030f116ddee9f6b43ac78ba3",
        "gas": "0x96a0",
        "value": "0x0",
        "input": "0x87517c450000000000000000000000002170d1ec7b1392611323a4c1793e580349cc5cc0000000000000000000000000f969aee60879c54baaed9f3ed26147db216fd664000000000000000000000000ffffffffffffffffffffffffffffffffffffffff0000000000000000000000000000000000000000000000000000ffffffffffff",
        "nonce": "0x62",
        "chainId": "0x515"
      },
      "additionalContracts": [],
      "isFixedGasLimit": false
    },
    {
      "hash": "0xddca559d8f462b38fe2b0d37067a52dabae9e6e970dd34d214a30ec9327b2820",
      "transactionType": "CALL",
      "contractName": null,
      "contractAddress": "0x000000000022d473030f116ddee9f6b43ac78ba3",
      "function": "approve(address,address,uint160,uint48)",
      "arguments": [
        "0x58C414Bd85bf1d39985476Dfa5fBd59af356E8f0",
        "0xf969Aee60879C54bAAed9F3eD26147Db216Fd664",
        "1461501637330902918203684832716283019655932542975",
        "281474976710655"
      ],
      "transaction": {
        "from": "0xf30180b9cec36f5a3762332c0f102fe8c024d64e",
        "to": "0x000000000022d473030f116ddee9f6b43ac78ba3",
        "gas": "0x96a0",
        "value": "0x0",
        "input": "0x87517c4500000000000000000000000058c414bd85bf1d39985476dfa5fbd59af356e8f0000000000000000000000000f969aee60879c54baaed9f3ed26147db216fd664000000000000000000000000ffffffffffffffffffffffffffffffffffffffff0000000000000000000000000000000000000000000000000000ffffffffffff",
        "nonce": "0x63",
        "chainId": "0x515"
      },
      "additionalContracts": [],
      "isFixedGasLimit": false
    },
    {
      "hash": "0xb7a1c70ea4b60b684a0b8671d8cd50b9da4ee45edc2c97c7735d4600d129ce98",
      "transactionType": "CALL",
      "contractName": null,
      "contractAddress": "0xf969aee60879c54baaed9f3ed26147db216fd664",
      "function": "multicall(bytes[])",
      "arguments": [
        "[0xf70204050000000000000000000000002170d1ec7b1392611323a4c1793e580349cc5cc000000000000000000000000058c414bd85bf1d39985476dfa5fbd59af356e8f00000000000000000000000000000000000000000000000000000000000800000000000000000000000000000000000000000000000000000000000000000000a00000000000000000000000005e5c38f6ca3e76c30145eb73f1128b7749140c0000000000000000000000000000000000000000100000000000000000000000000000000000000000000000000000000000000000000000000000000000000e00000000000000000000000000000000000000000000000000000000000000000, 0xdd46508f00000000000000000000000000000000000000000000000000000000000000400000000000000000000000000000000000000000000000000000000069ba530a0000000000000000000000000000000000000000000000000000000000000400000000000000000000000000000000000000000000000000000000000000004000000000000000000000000000000000000000000000000000000000000000800000000000000000000000000000000000000000000000000000000000000004020d14140000000000000000000000000000000000000000000000000000000000000000000000000000000000000000000000000000000000000000000000040000000000000000000000000000000000000000000000000000000000000080000000000000000000000000000000000000000000000000000000000000024000000000000000000000000000000000000000000000000000000000000002a0000000000000000000000000000000000000000000000000000000000000030000000000000000000000000000000000000000000000000000000000000001a00000000000000000000000002170d1ec7b1392611323a4c1793e580349cc5cc000000000000000000000000058c414bd85bf1d39985476dfa5fbd59af356e8f00000000000000000000000000000000000000000000000000000000000800000000000000000000000000000000000000000000000000000000000000000000a00000000000000000000000005e5c38f6ca3e76c30145eb73f1128b7749140c0fffffffffffffffffffffffffffffffffffffffffffffffffffffffffffffc1800000000000000000000000000000000000000000000000000000000000003e8000000000000000000000000000000000000000000000000000001dd6c50ad7a000000000000000000000000000000000000000000000000000000174876e801000000000000000000000000000000000000000000000000000000174876e801000000000000000000000000f30180b9cec36f5a3762332c0f102fe8c024d64e0000000000000000000000000000000000000000000000000000000000000180000000000000000000000000000000000000000000000000000000000000000000000000000000000000000000000000000000000000000000000000000000400000000000000000000000002170d1ec7b1392611323a4c1793e580349cc5cc000000000000000000000000058c414bd85bf1d39985476dfa5fbd59af356e8f000000000000000000000000000000000000000000000000000000000000000400000000000000000000000002170d1ec7b1392611323a4c1793e580349cc5cc0000000000000000000000000f30180b9cec36f5a3762332c0f102fe8c024d64e000000000000000000000000000000000000000000000000000000000000004000000000000000000000000058c414bd85bf1d39985476dfa5fbd59af356e8f0000000000000000000000000f30180b9cec36f5a3762332c0f102fe8c024d64e]"
      ],
      "transaction": {
        "from": "0xf30180b9cec36f5a3762332c0f102fe8c024d64e",
        "to": "0xf969aee60879c54baaed9f3ed26147db216fd664",
        "gas": "0x93c08",
        "value": "0x0",
        "input": "0xac9650d800000000000000000000000000000000000000000000000000000000000000200000000000000000000000000000000000000000000000000000000000000002000000000000000000000000000000000000000000000000000000000000004000000000000000000000000000000000000000000000000000000000000001800000000000000000000000000000000000000000000000000000000000000104f70204050000000000000000000000002170d1ec7b1392611323a4c1793e580349cc5cc000000000000000000000000058c414bd85bf1d39985476dfa5fbd59af356e8f00000000000000000000000000000000000000000000000000000000000800000000000000000000000000000000000000000000000000000000000000000000a00000000000000000000000005e5c38f6ca3e76c30145eb73f1128b7749140c0000000000000000000000000000000000000000100000000000000000000000000000000000000000000000000000000000000000000000000000000000000e00000000000000000000000000000000000000000000000000000000000000000000000000000000000000000000000000000000000000000000000000000000000000000000000000000000000000000000000000000000000000464dd46508f00000000000000000000000000000000000000000000000000000000000000400000000000000000000000000000000000000000000000000000000069ba530a0000000000000000000000000000000000000000000000000000000000000400000000000000000000000000000000000000000000000000000000000000004000000000000000000000000000000000000000000000000000000000000000800000000000000000000000000000000000000000000000000000000000000004020d14140000000000000000000000000000000000000000000000000000000000000000000000000000000000000000000000000000000000000000000000040000000000000000000000000000000000000000000000000000000000000080000000000000000000000000000000000000000000000000000000000000024000000000000000000000000000000000000000000000000000000000000002a0000000000000000000000000000000000000000000000000000000000000030000000000000000000000000000000000000000000000000000000000000001a00000000000000000000000002170d1ec7b1392611323a4c1793e580349cc5cc000000000000000000000000058c414bd85bf1d39985476dfa5fbd59af356e8f00000000000000000000000000000000000000000000000000000000000800000000000000000000000000000000000000000000000000000000000000000000a00000000000000000000000005e5c38f6ca3e76c30145eb73f1128b7749140c0fffffffffffffffffffffffffffffffffffffffffffffffffffffffffffffc1800000000000000000000000000000000000000000000000000000000000003e8000000000000000000000000000000000000000000000000000001dd6c50ad7a000000000000000000000000000000000000000000000000000000174876e801000000000000000000000000000000000000000000000000000000174876e801000000000000000000000000f30180b9cec36f5a3762332c0f102fe8c024d64e0000000000000000000000000000000000000000000000000000000000000180000000000000000000000000000000000000000000000000000000000000000000000000000000000000000000000000000000000000000000000000000000400000000000000000000000002170d1ec7b1392611323a4c1793e580349cc5cc000000000000000000000000058c414bd85bf1d39985476dfa5fbd59af356e8f000000000000000000000000000000000000000000000000000000000000000400000000000000000000000002170d1ec7b1392611323a4c1793e580349cc5cc0000000000000000000000000f30180b9cec36f5a3762332c0f102fe8c024d64e000000000000000000000000000000000000000000000000000000000000004000000000000000000000000058c414bd85bf1d39985476dfa5fbd59af356e8f0000000000000000000000000f30180b9cec36f5a3762332c0f102fe8c024d64e00000000000000000000000000000000000000000000000000000000",
        "nonce": "0x64",
        "chainId": "0x515"
      },
      "additionalContracts": [],
      "isFixedGasLimit": false
    }
  ],
  "receipts": [
    {
      "status": "0x1",
      "cumulativeGasUsed": "0x3010e",
      "logs": [
        {
          "address": "0x58c414bd85bf1d39985476dfa5fbd59af356e8f0",
          "topics": [
            "0xddf252ad1be2c89b69c2b068fc378daa952ba7f163c4a11628f55a4df523b3ef",
            "0x0000000000000000000000000000000000000000000000000000000000000000",
            "0x000000000000000000000000f30180b9cec36f5a3762332c0f102fe8c024d64e"
          ],
          "data": "0x000000000000000000000000000000000000000000000000000000178411b200",
          "blockHash": "0x0000000000000000000000000000000000000000000000000000000000000000",
          "blockNumber": "0x2cc97ca",
          "blockTimestamp": "0x69ba4516",
          "transactionHash": "0x59903813a394597d653c0c0bb43fae07f2ce9f9892c4d4588749b42c314c52e3",
          "transactionIndex": "0x3",
          "logIndex": "0x1",
          "removed": false
        }
      ],
      "logsBloom": "0x00000000000000000000000000000000000000000000000000000000000000000000000000000000000000000000004000000000000000000000000000000000000000000000000000000008000000000000000000000000000000000000000000000000020000000000000000000800000000000000000000000010000000000000000000000000000000000040000000000000000000000000000000000000000000000040000000000000000000000000002000000000000000000000000000008002000000000000000000000000000000000000000000000000000020000000800000000000000000000000000000000000000000000000000000000000",
      "type": "0x2",
      "transactionHash": "0x59903813a394597d653c0c0bb43fae07f2ce9f9892c4d4588749b42c314c52e3",
      "transactionIndex": "0x3",
      "blockHash": "0x0000000000000000000000000000000000000000000000000000000000000000",
      "blockNumber": "0x2cc97ca",
      "gasUsed": "0x870a",
      "effectiveGasPrice": "0x7a121",
      "blobGasUsed": "0x9c40",
      "from": "0xf30180b9cec36f5a3762332c0f102fe8c024d64e",
      "to": "0x58c414bd85bf1d39985476dfa5fbd59af356e8f0",
      "contractAddress": null,
      "daFootprintGasScalar": "0x190",
      "l1BaseFeeScalar": "0x7d0",
      "l1BlobBaseFee": "0x502",
      "l1BlobBaseFeeScalar": "0xdbba0",
      "l1Fee": "0x27264",
      "l1GasPrice": "0xc",
      "l1GasUsed": "0x640"
    },
    {
      "status": "0x1",
      "cumulativeGasUsed": "0x38818",
      "logs": [
        {
          "address": "0x2170d1ec7b1392611323a4c1793e580349cc5cc0",
          "topics": [
            "0xddf252ad1be2c89b69c2b068fc378daa952ba7f163c4a11628f55a4df523b3ef",
            "0x0000000000000000000000000000000000000000000000000000000000000000",
            "0x000000000000000000000000f30180b9cec36f5a3762332c0f102fe8c024d64e"
          ],
          "data": "0x000000000000000000000000000000000000000000000000000000178411b200",
          "blockHash": "0x0000000000000000000000000000000000000000000000000000000000000000",
          "blockNumber": "0x2cc97ca",
          "blockTimestamp": "0x69ba4516",
          "transactionHash": "0x7d34e50d298482c9ff148d094163f8135f237555ecfb338c37e6e26d9f92ea49",
          "transactionIndex": "0x4",
          "logIndex": "0x2",
          "removed": false
        }
      ],
      "logsBloom": "0x00000000000000000000000000000000000000000000000000001000000000010000000000000000000000000000004000000000000000000000000000000000000000000000000000000008000000000000000000000000000000000000000000000000020000000000000000000800000000000000000000000010000000000000000000000000000000000040000000000080000000000000000000000000000000000000000000000000000000000000000000000000000000000000000000008002000000000000000000000000000000000000000000000000000020000000000000000000000000000000000000000000000000000000000000000000",
      "type": "0x2",
      "transactionHash": "0x7d34e50d298482c9ff148d094163f8135f237555ecfb338c37e6e26d9f92ea49",
      "transactionIndex": "0x4",
      "blockHash": "0x0000000000000000000000000000000000000000000000000000000000000000",
      "blockNumber": "0x2cc97ca",
      "gasUsed": "0x870a",
      "effectiveGasPrice": "0x7a121",
      "blobGasUsed": "0x9c40",
      "from": "0xf30180b9cec36f5a3762332c0f102fe8c024d64e",
      "to": "0x2170d1ec7b1392611323a4c1793e580349cc5cc0",
      "contractAddress": null,
      "daFootprintGasScalar": "0x190",
      "l1BaseFeeScalar": "0x7d0",
      "l1BlobBaseFee": "0x502",
      "l1BlobBaseFeeScalar": "0xdbba0",
      "l1Fee": "0x27264",
      "l1GasPrice": "0xc",
      "l1GasUsed": "0x640"
    },
    {
      "status": "0x1",
      "cumulativeGasUsed": "0x3f1ce",
      "logs": [
        {
          "address": "0x2170d1ec7b1392611323a4c1793e580349cc5cc0",
          "topics": [
            "0x8c5be1e5ebec7d5bd14f71427d1e84f3dd0314c0f7b2291e5b200ac8c7c3b925",
            "0x000000000000000000000000f30180b9cec36f5a3762332c0f102fe8c024d64e",
            "0x000000000000000000000000000000000022d473030f116ddee9f6b43ac78ba3"
          ],
          "data": "0xffffffffffffffffffffffffffffffffffffffffffffffffffffffffffffffff",
          "blockHash": "0x0000000000000000000000000000000000000000000000000000000000000000",
          "blockNumber": "0x2cc97ca",
          "blockTimestamp": "0x69ba4516",
          "transactionHash": "0xd416f0c21511fc59ab966f7f195f1ca4cd621b9d8db1eb96d284808e9870f933",
          "transactionIndex": "0x5",
          "logIndex": "0x3",
          "removed": false
        }
      ],
      "logsBloom": "0x00000000000000000000000000000000000000000000000000001000000000010000000000000000000000000000004000000000800000000000000000200000000000000000000000004000000000000000000000000800000000000000000000000000000000000000000000000000000000000000000000000000000000000000000000000000000000000040000000000080000000000000000000000000020000000000000000000000000000000000000000000000000000000000000000008000000000000000000000000000000000000000000000000000000000000010000000000000000000000000000000000000000000000000000000000000",
      "type": "0x2",
      "transactionHash": "0xd416f0c21511fc59ab966f7f195f1ca4cd621b9d8db1eb96d284808e9870f933",
      "transactionIndex": "0x5",
      "blockHash": "0x0000000000000000000000000000000000000000000000000000000000000000",
      "blockNumber": "0x2cc97ca",
      "gasUsed": "0x69b6",
      "effectiveGasPrice": "0x7a121",
      "blobGasUsed": "0x9c40",
      "from": "0xf30180b9cec36f5a3762332c0f102fe8c024d64e",
      "to": "0x2170d1ec7b1392611323a4c1793e580349cc5cc0",
      "contractAddress": null,
      "daFootprintGasScalar": "0x190",
      "l1BaseFeeScalar": "0x7d0",
      "l1BlobBaseFee": "0x502",
      "l1BlobBaseFeeScalar": "0xdbba0",
      "l1Fee": "0x27264",
      "l1GasPrice": "0xc",
      "l1GasUsed": "0x640"
    },
    {
      "status": "0x1",
      "cumulativeGasUsed": "0x45b84",
      "logs": [
        {
          "address": "0x58c414bd85bf1d39985476dfa5fbd59af356e8f0",
          "topics": [
            "0x8c5be1e5ebec7d5bd14f71427d1e84f3dd0314c0f7b2291e5b200ac8c7c3b925",
            "0x000000000000000000000000f30180b9cec36f5a3762332c0f102fe8c024d64e",
            "0x000000000000000000000000000000000022d473030f116ddee9f6b43ac78ba3"
          ],
          "data": "0xffffffffffffffffffffffffffffffffffffffffffffffffffffffffffffffff",
          "blockHash": "0x0000000000000000000000000000000000000000000000000000000000000000",
          "blockNumber": "0x2cc97ca",
          "blockTimestamp": "0x69ba4516",
          "transactionHash": "0xddca559d8f462b38fe2b0d37067a52dabae9e6e970dd34d214a30ec9327b2820",
          "transactionIndex": "0x6",
          "logIndex": "0x4",
          "removed": false
        }
      ],
      "logsBloom": "0x00000000000000000000000000000000000000000000000000000000000000000000000000000000000000000000004000000000800000000000000000200000000000000000000000004000000000000000000000000800000000000000000000000000000000000000000000000000000000000000000000000000000000000000000000000000000000000040000000000000000000000000000000000000020000000040000000000000000000000000002000000000000000000000000000008000000000000000000000000000000000000000000000000000000000000010800000000000000000000000000000000000000000000000000000000000",
      "type": "0x2",
      "transactionHash": "0xddca559d8f462b38fe2b0d37067a52dabae9e6e970dd34d214a30ec9327b2820",
      "transactionIndex": "0x6",
      "blockHash": "0x0000000000000000000000000000000000000000000000000000000000000000",
      "blockNumber": "0x2cc97ca",
      "gasUsed": "0x69b6",
      "effectiveGasPrice": "0x7a121",
      "blobGasUsed": "0x9c40",
      "from": "0xf30180b9cec36f5a3762332c0f102fe8c024d64e",
      "to": "0x58c414bd85bf1d39985476dfa5fbd59af356e8f0",
      "contractAddress": null,
      "daFootprintGasScalar": "0x190",
      "l1BaseFeeScalar": "0x7d0",
      "l1BlobBaseFee": "0x502",
      "l1BlobBaseFeeScalar": "0xdbba0",
      "l1Fee": "0x27264",
      "l1GasPrice": "0xc",
      "l1GasUsed": "0x640"
    },
    {
      "status": "0x1",
      "cumulativeGasUsed": "0x4c892",
      "logs": [
        {
          "address": "0x000000000022d473030f116ddee9f6b43ac78ba3",
          "topics": [
            "0xda9fa7c1b00402c17d0161b249b1ab8bbec047c5a52207b9c112deffd817036b",
            "0x000000000000000000000000f30180b9cec36f5a3762332c0f102fe8c024d64e",
            "0x0000000000000000000000002170d1ec7b1392611323a4c1793e580349cc5cc0",
            "0x000000000000000000000000f969aee60879c54baaed9f3ed26147db216fd664"
          ],
          "data": "0x000000000000000000000000ffffffffffffffffffffffffffffffffffffffff0000000000000000000000000000000000000000000000000000ffffffffffff",
          "blockHash": "0x0000000000000000000000000000000000000000000000000000000000000000",
          "blockNumber": "0x2cc97ca",
          "blockTimestamp": "0x69ba4516",
          "transactionHash": "0x033cb5e236b92121a1cff18881837a28eb6233f2fae5dff07e2b0f8c969b1a4a",
          "transactionIndex": "0x7",
          "logIndex": "0x5",
          "removed": false
        }
      ],
      "logsBloom": "0x00010000000000000000000000000000000000000000000000000000000000000000000000000000800000000000004000000000000000000000000000080000000000000000000000000000000000000000000000000000000000001000000000000000000000000000000000000000000000000040000000000000000100000020000000000000000000000040000000000000000000000000000000000000000000000000000000000000000000000000000000000000000000080000000000008000000000000000000000020000000000000000000040000000000000000000000000000000000000000000000000000000000000000000000000002400",
      "type": "0x2",
      "transactionHash": "0x033cb5e236b92121a1cff18881837a28eb6233f2fae5dff07e2b0f8c969b1a4a",
      "transactionIndex": "0x7",
      "blockHash": "0x0000000000000000000000000000000000000000000000000000000000000000",
      "blockNumber": "0x2cc97ca",
      "gasUsed": "0x6d0e",
      "effectiveGasPrice": "0x7a121",
      "blobGasUsed": "0xa730",
      "from": "0xf30180b9cec36f5a3762332c0f102fe8c024d64e",
      "to": "0x000000000022d473030f116ddee9f6b43ac78ba3",
      "contractAddress": null,
      "daFootprintGasScalar": "0x190",
      "l1BaseFeeScalar": "0x7d0",
      "l1BlobBaseFee": "0x502",
      "l1BlobBaseFeeScalar": "0xdbba0",
      "l1Fee": "0x27264",
      "l1GasPrice": "0xc",
      "l1GasUsed": "0x6bf"
    },
    {
      "status": "0x1",
      "cumulativeGasUsed": "0x535a0",
      "logs": [
        {
          "address": "0x000000000022d473030f116ddee9f6b43ac78ba3",
          "topics": [
            "0xda9fa7c1b00402c17d0161b249b1ab8bbec047c5a52207b9c112deffd817036b",
            "0x000000000000000000000000f30180b9cec36f5a3762332c0f102fe8c024d64e",
            "0x00000000000000000000000058c414bd85bf1d39985476dfa5fbd59af356e8f0",
            "0x000000000000000000000000f969aee60879c54baaed9f3ed26147db216fd664"
          ],
          "data": "0x000000000000000000000000ffffffffffffffffffffffffffffffffffffffff0000000000000000000000000000000000000000000000000000ffffffffffff",
          "blockHash": "0x0000000000000000000000000000000000000000000000000000000000000000",
          "blockNumber": "0x2cc97ca",
          "blockTimestamp": "0x69ba4516",
          "transactionHash": "0xb7a1c70ea4b60b684a0b8671d8cd50b9da4ee45edc2c97c7735d4600d129ce98",
          "transactionIndex": "0x8",
          "logIndex": "0x6",
          "removed": false
        }
      ],
      "logsBloom": "0x00010000000000000000000000000000002000000000000000000000000000000000000000000000000000000000004080000000000000000000000000080000000000000000000000000000000000000000000000000000000000001000000000000000000000000000000000000000000000000040000000000000000000000020000000000000000000000040000000000000000000000000000000000000000000000000000000000000000000004000000000000000000000080000000000008000000000000000000000000000000000000000000040000000000000000000000000000000000000000000000000000000000000000000000000002400",
      "type": "0x2",
      "transactionHash": "0xb7a1c70ea4b60b684a0b8671d8cd50b9da4ee45edc2c97c7735d4600d129ce98",
      "transactionIndex": "0x8",
      "blockHash": "0x0000000000000000000000000000000000000000000000000000000000000000",
      "blockNumber": "0x2cc97ca",
      "gasUsed": "0x6d0e",
      "effectiveGasPrice": "0x7a121",
      "blobGasUsed": "0xa730",
      "from": "0xf30180b9cec36f5a3762332c0f102fe8c024d64e",
      "to": "0x000000000022d473030f116ddee9f6b43ac78ba3",
      "contractAddress": null,
      "daFootprintGasScalar": "0x190",
      "l1BaseFeeScalar": "0x7d0",
      "l1BlobBaseFee": "0x502",
      "l1BlobBaseFeeScalar": "0xdbba0",
      "l1Fee": "0x27264",
      "l1GasPrice": "0xc",
      "l1GasUsed": "0x6bf"
    },
    {
      "status": "0x1",
      "cumulativeGasUsed": "0xbe525",
      "logs": [
        {
          "address": "0x00b036b58a818b1bc34d502d3fe730db729e62ac",
          "topics": [
            "0xdd466e674ea557f56295e2d0218a125ea4b4f0f6f3307b95f85e6110838d6438",
            "0x6a076d9f4fd931f2a6f507011e5c50a06ff424695d002ac8e5db45d4125045b3",
            "0x0000000000000000000000002170d1ec7b1392611323a4c1793e580349cc5cc0",
            "0x00000000000000000000000058c414bd85bf1d39985476dfa5fbd59af356e8f0"
          ],
          "data": "0x0000000000000000000000000000000000000000000000000000000000800000000000000000000000000000000000000000000000000000000000000000000a00000000000000000000000005e5c38f6ca3e76c30145eb73f1128b7749140c000000000000000000000000000000000000000010000000000000000000000000000000000000000000000000000000000000000000000000000000000000000",
          "blockHash": "0x0000000000000000000000000000000000000000000000000000000000000000",
          "blockNumber": "0x2cc97ca",
          "blockTimestamp": "0x69ba4516",
          "transactionHash": "0x926a89a36fae9c9ec994b9f9d9b36d5d1f70b33745f9ca6232719b965b8bb0c0",
          "transactionIndex": "0x9",
          "logIndex": "0x7",
          "removed": false
        },
        {
          "address": "0xf969aee60879c54baaed9f3ed26147db216fd664",
          "topics": [
            "0xddf252ad1be2c89b69c2b068fc378daa952ba7f163c4a11628f55a4df523b3ef",
            "0x0000000000000000000000000000000000000000000000000000000000000000",
            "0x000000000000000000000000f30180b9cec36f5a3762332c0f102fe8c024d64e",
            "0x0000000000000000000000000000000000000000000000000000000000001c42"
          ],
          "data": "0x",
          "blockHash": "0x0000000000000000000000000000000000000000000000000000000000000000",
          "blockNumber": "0x2cc97ca",
          "blockTimestamp": "0x69ba4516",
          "transactionHash": "0x926a89a36fae9c9ec994b9f9d9b36d5d1f70b33745f9ca6232719b965b8bb0c0",
          "transactionIndex": "0x9",
          "logIndex": "0x8",
          "removed": false
        },
        {
          "address": "0x00b036b58a818b1bc34d502d3fe730db729e62ac",
          "topics": [
            "0xf208f4912782fd25c7f114ca3723a2d5dd6f3bcc3ac8db5af63baa85f711d5ec",
            "0x6a076d9f4fd931f2a6f507011e5c50a06ff424695d002ac8e5db45d4125045b3",
            "0x000000000000000000000000f969aee60879c54baaed9f3ed26147db216fd664"
          ],
          "data": "0xfffffffffffffffffffffffffffffffffffffffffffffffffffffffffffffc1800000000000000000000000000000000000000000000000000000000000003e8000000000000000000000000000000000000000000000000000001dd6c50ad7a0000000000000000000000000000000000000000000000000000000000001c42",
          "blockHash": "0x0000000000000000000000000000000000000000000000000000000000000000",
          "blockNumber": "0x2cc97ca",
          "blockTimestamp": "0x69ba4516",
          "transactionHash": "0x926a89a36fae9c9ec994b9f9d9b36d5d1f70b33745f9ca6232719b965b8bb0c0",
          "transactionIndex": "0x9",
          "logIndex": "0x9",
          "removed": false
        },
        {
          "address": "0x2170d1ec7b1392611323a4c1793e580349cc5cc0",
          "topics": [
            "0xddf252ad1be2c89b69c2b068fc378daa952ba7f163c4a11628f55a4df523b3ef",
            "0x000000000000000000000000f30180b9cec36f5a3762332c0f102fe8c024d64e",
            "0x00000000000000000000000000b036b58a818b1bc34d502d3fe730db729e62ac"
          ],
          "data": "0x000000000000000000000000000000000000000000000000000000174876e800",
          "blockHash": "0x0000000000000000000000000000000000000000000000000000000000000000",
          "blockNumber": "0x2cc97ca",
          "blockTimestamp": "0x69ba4516",
          "transactionHash": "0x926a89a36fae9c9ec994b9f9d9b36d5d1f70b33745f9ca6232719b965b8bb0c0",
          "transactionIndex": "0x9",
          "logIndex": "0xa",
          "removed": false
        },
        {
          "address": "0x58c414bd85bf1d39985476dfa5fbd59af356e8f0",
          "topics": [
            "0xddf252ad1be2c89b69c2b068fc378daa952ba7f163c4a11628f55a4df523b3ef",
            "0x000000000000000000000000f30180b9cec36f5a3762332c0f102fe8c024d64e",
            "0x00000000000000000000000000b036b58a818b1bc34d502d3fe730db729e62ac"
          ],
          "data": "0x000000000000000000000000000000000000000000000000000000174876e800",
          "blockHash": "0x0000000000000000000000000000000000000000000000000000000000000000",
          "blockNumber": "0x2cc97ca",
          "blockTimestamp": "0x69ba4516",
          "transactionHash": "0x926a89a36fae9c9ec994b9f9d9b36d5d1f70b33745f9ca6232719b965b8bb0c0",
          "transactionIndex": "0x9",
          "logIndex": "0xb",
          "removed": false
        }
      ],
      "logsBloom": "0x00000000000000000000000000000000002000000000000000001000000000010000000000000000800800000000004080000000001000000000000000000000004000000000000000000008020000000000000000000000000000001000000000000000020000000000000000004880000000000040000000000010000100000000000001000008000000000048000000000081000000000000000000200000000004000040000000000000000000004800002000000020000000000000000000008002090000000000000000020008000000000000000000000000000020004000800000000000000000000000000004000000000002000000000000002010",
      "type": "0x2",
      "transactionHash": "0x926a89a36fae9c9ec994b9f9d9b36d5d1f70b33745f9ca6232719b965b8bb0c0",
      "transactionIndex": "0x9",
      "blockHash": "0x0000000000000000000000000000000000000000000000000000000000000000",
      "blockNumber": "0x2cc97ca",
      "gasUsed": "0x6af85",
      "effectiveGasPrice": "0x7a121",
      "blobGasUsed": "0x1fa40",
      "from": "0xf30180b9cec36f5a3762332c0f102fe8c024d64e",
      "to": "0xf969aee60879c54baaed9f3ed26147db216fd664",
      "contractAddress": null,
      "daFootprintGasScalar": "0x190",
      "l1BaseFeeScalar": "0x7d0",
      "l1BlobBaseFee": "0x502",
      "l1BlobBaseFeeScalar": "0xdbba0",
      "l1Fee": "0x27264",
      "l1GasPrice": "0xc",
      "l1GasUsed": "0x144a"
    }
  ],
  "libraries": [],
  "pending": [],
  "returns": {},
  "timestamp": 1773815061805,
  "chain": 1301,
  "commit": "a3bca1c"
}