{
  "transactions": [
    {
      "hash": "0xcd9987838b159d4d2546b61cc29763bc9827c6c14f922d5d4fbe62cb161713be",
      "transactionType": "CALL",
      "contractName": "MockStablecoin",
      "contractAddress": "0x58c414bd85bf1d39985476dfa5fbd59af356e8f0",
      "function": "mint(address,uint256)",
      "arguments": [
        "0xF30180b9CeC36f5a3762332c0f102Fe8C024D64e",
        "101000000000"
      ],
      "transaction": {
        "from": "0xf30180b9cec36f5a3762332c0f102fe8c024d64e",
        "to": "0x58c414bd85bf1d39985476dfa5fbd59af356e8f0",
        "gas": "0xc57e",
        "value": "0x0",
        "input": "0x40c10f19000000000000000000000000f30180b9cec36f5a3762332c0f102fe8c024d64e000000000000000000000000000000000000000000000000000000178411b200",
        "nonce": "0x56",
        "chainId": "0x14a34"
      },
      "additionalContracts": [],
      "isFixedGasLimit": false
    },
    {
      "hash": "0x78650487690a7b2e84d96be6b9003c24df45c22b8178ee7761d9590afcf7d500",
      "transactionType": "CALL",
      "contractName": "MockStablecoin",
      "contractAddress": "0x2170d1ec7b1392611323a4c1793e580349cc5cc0",
      "function": "mint(address,uint256)",
      "arguments": [
        "0xF30180b9CeC36f5a3762332c0f102Fe8C024D64e",
        "101000000000"
      ],
      "transaction": {
        "from": "0xf30180b9cec36f5a3762332c0f102fe8c024d64e",
        "to": "0x2170d1ec7b1392611323a4c1793e580349cc5cc0",
        "gas": "0xc57e",
        "value": "0x0",
        "input": "0x40c10f19000000000000000000000000f30180b9cec36f5a3762332c0f102fe8c024d64e000000000000000000000000000000000000000000000000000000178411b200",
        "nonce": "0x57",
        "chainId": "0x14a34"
      },
      "additionalContracts": [],
      "isFixedGasLimit": false
    },
    {
      "hash": "0xd891d9745a79f23eb7d9077feed9e2e63895d676b7c8dce4f4d9c8ea469fda15",
      "transactionType": "CALL",
      "contractName": "MockStablecoin",
      "contractAddress": "0x2170d1ec7b1392611323a4c1793e580349cc5cc0",
      "function": "approve(address,uint256)",
      "arguments": [
        "0x000000000022D473030F116dDEE9F6B43aC78BA3",
        "115792089237316195423570985008687907853269984665640564039457584007913129639935"
      ],
      "transaction": {
        "from": "0xf30180b9cec36f5a3762332c0f102fe8c024d64e",
        "to": "0x2170d1ec7b1392611323a4c1793e580349cc5cc0",
        "gas": "0x9202",
        "value": "0x0",
        "input": "0x095ea7b3000000000000000000000000000000000022d473030f116ddee9f6b43ac78ba3ffffffffffffffffffffffffffffffffffffffffffffffffffffffffffffffff",
        "nonce": "0x58",
        "chainId": "0x14a34"
      },
      "additionalContracts": [],
      "isFixedGasLimit": false
    },
    {
      "hash": "0xf754caa1b62f142e2b8fcd5ff83036fe1e35575af6df0b65397a17c80397a1fb",
      "transactionType": "CALL",
      "contractName": "MockStablecoin",
      "contractAddress": "0x58c414bd85bf1d39985476dfa5fbd59af356e8f0",
      "function": "approve(address,uint256)",
      "arguments": [
        "0x000000000022D473030F116dDEE9F6B43aC78BA3",
        "115792089237316195423570985008687907853269984665640564039457584007913129639935"
      ],
      "transaction": {
        "from": "0xf30180b9cec36f5a3762332c0f102fe8c024d64e",
        "to": "0x58c414bd85bf1d39985476dfa5fbd59af356e8f0",
        "gas": "0x9202",
        "value": "0x0",
        "input": "0x095ea7b3000000000000000000000000000000000022d473030f116ddee9f6b43ac78ba3ffffffffffffffffffffffffffffffffffffffffffffffffffffffffffffffff",
        "nonce": "0x59",
        "chainId": "0x14a34"
      },
      "additionalContracts": [],
      "isFixedGasLimit": false
    },
    {
      "hash": "0xc965884bddba5302445b0f3f573c20e060f2eb15fb664df23beabdefd11c82f0",
      "transactionType": "CALL",
      "contractName": null,
      "contractAddress": "0x000000000022d473030f116ddee9f6b43ac78ba3",
      "function": "approve(address,address,uint160,uint48)",
      "arguments": [
        "0x2170d1eC7B1392611323A4c1793e580349CC5CC0",
        "0x4B2C77d209D3405F41a037Ec6c77F7F5b8e2ca80",
        "1461501637330902918203684832716283019655932542975",
        "281474976710655"
      ],
      "transaction": {
        "from": "0xf30180b9cec36f5a3762332c0f102fe8c024d64e",
        "to": "0x000000000022d473030f116ddee9f6b43ac78ba3",
        "gas": "0x96a0",
        "value": "0x0",
        "input": "0x87517c450000000000000000000000002170d1ec7b1392611323a4c1793e580349cc5cc00000000000000000000000004b2c77d209d3405f41a037ec6c77f7f5b8e2ca80000000000000000000000000ffffffffffffffffffffffffffffffffffffffff0000000000000000000000000000000000000000000000000000ffffffffffff",
        "nonce": "0x5a",
        "chainId": "0x14a34"
      },
      "additionalContracts": [],
      "isFixedGasLimit": false
    },
    {
      "hash": "0x2621c7647986fb76e7a31324475ad6bc2fa1ed94768c96701db77f638282e205",
      "transactionType": "CALL",
      "contractName": null,
      "contractAddress": "0x000000000022d473030f116ddee9f6b43ac78ba3",
      "function": "approve(address,address,uint160,uint48)",
      "arguments": [
        "0x58C414Bd85bf1d39985476Dfa5fBd59af356E8f0",
        "0x4B2C77d209D3405F41a037Ec6c77F7F5b8e2ca80",
        "1461501637330902918203684832716283019655932542975",
        "281474976710655"
      ],
      "transaction": {
        "from": "0xf30180b9cec36f5a3762332c0f102fe8c024d64e",
        "to": "0x000000000022d473030f116ddee9f6b43ac78ba3",
        "gas": "0x96a0",
        "value": "0x0",
        "input": "0x87517c4500000000000000000000000058c414bd85bf1d39985476dfa5fbd59af356e8f00000000000000000000000004b2c77d209d3405f41a037ec6c77f7f5b8e2ca80000000000000000000000000ffffffffffffffffffffffffffffffffffffffff0000000000000000000000000000000000000000000000000000ffffffffffff",
        "nonce": "0x5b",
        "chainId": "0x14a34"
      },
      "additionalContracts": [],
      "isFixedGasLimit": false
    },
    {
      "hash": "0x2edbc5be3ff62d58b66700a74a8361862542e189c6098bc2c51cccc602d310b5",
      "transactionType": "CALL",
      "contractName": null,
      "contractAddress": "0x4b2c77d209d3405f41a037ec6c77f7f5b8e2ca80",
      "function": "multicall(bytes[])",
      "arguments": [
        "[0xf70204050000000000000000000000002170d1ec7b1392611323a4c1793e580349cc5cc000000000000000000000000058c414bd85bf1d39985476dfa5fbd59af356e8f00000000000000000000000000000000000000000000000000000000000800000000000000000000000000000000000000000000000000000000000000000000a000000000000000000000000f8fd12c76c606ca9bc3dadee9706b4357e6780c0000000000000000000000000000000000000000100000000000000000000000000000000000000000000000000000000000000000000000000000000000000e00000000000000000000000000000000000000000000000000000000000000000, 0xdd46508f00000000000000000000000000000000000000000000000000000000000000400000000000000000000000000000000000000000000000000000000069ba4ad20000000000000000000000000000000000000000000000000000000000000400000000000000000000000000000000000000000000000000000000000000004000000000000000000000000000000000000000000000000000000000000000800000000000000000000000000000000000000000000000000000000000000004020d14140000000000000000000000000000000000000000000000000000000000000000000000000000000000000000000000000000000000000000000000040000000000000000000000000000000000000000000000000000000000000080000000000000000000000000000000000000000000000000000000000000024000000000000000000000000000000000000000000000000000000000000002a0000000000000000000000000000000000000000000000000000000000000030000000000000000000000000000000000000000000000000000000000000001a00000000000000000000000002170d1ec7b1392611323a4c1793e580349cc5cc000000000000000000000000058c414bd85bf1d39985476dfa5fbd59af356e8f00000000000000000000000000000000000000000000000000000000000800000000000000000000000000000000000000000000000000000000000000000000a000000000000000000000000f8fd12c76c606ca9bc3dadee9706b4357e6780c0fffffffffffffffffffffffffffffffffffffffffffffffffffffffffffffc1800000000000000000000000000000000000000000000000000000000000003e8000000000000000000000000000000000000000000000000000001dd6c50ad7a000000000000000000000000000000000000000000000000000000174876e801000000000000000000000000000000000000000000000000000000174876e801000000000000000000000000f30180b9cec36f5a3762332c0f102fe8c024d64e0000000000000000000000000000000000000000000000000000000000000180000000000000000000000000000000000000000000000000000000000000000000000000000000000000000000000000000000000000000000000000000000400000000000000000000000002170d1ec7b1392611323a4c1793e580349cc5cc000000000000000000000000058c414bd85bf1d39985476dfa5fbd59af356e8f000000000000000000000000000000000000000000000000000000000000000400000000000000000000000002170d1ec7b1392611323a4c1793e580349cc5cc0000000000000000000000000f30180b9cec36f5a3762332c0f102fe8c024d64e000000000000000000000000000000000000000000000000000000000000004000000000000000000000000058c414bd85bf1d39985476dfa5fbd59af356e8f0000000000000000000000000f30180b9cec36f5a3762332c0f102fe8c024d64e]"
      ],
      "transaction": {
        "from": "0xf30180b9cec36f5a3762332c0f102fe8c024d64e",
        "to": "0x4b2c77d209d3405f41a037ec6c77f7f5b8e2ca80",
        "gas": "0x93c08",
        "value": "0x0",
        "input": "0xac9650d800000000000000000000000000000000000000000000000000000000000000200000000000000000000000000000000000000000000000000000000000000002000000000000000000000000000000000000000000000000000000000000004000000000000000000000000000000000000000000000000000000000000001800000000000000000000000000000000000000000000000000000000000000104f70204050000000000000000000000002170d1ec7b1392611323a4c1793e580349cc5cc000000000000000000000000058c414bd85bf1d39985476dfa5fbd59af356e8f00000000000000000000000000000000000000000000000000000000000800000000000000000000000000000000000000000000000000000000000000000000a000000000000000000000000f8fd12c76c606ca9bc3dadee9706b4357e6780c0000000000000000000000000000000000000000100000000000000000000000000000000000000000000000000000000000000000000000000000000000000e00000000000000000000000000000000000000000000000000000000000000000000000000000000000000000000000000000000000000000000000000000000000000000000000000000000000000000000000000000000000000464dd46508f00000000000000000000000000000000000000000000000000000000000000400000000000000000000000000000000000000000000000000000000069ba4ad20000000000000000000000000000000000000000000000000000000000000400000000000000000000000000000000000000000000000000000000000000004000000000000000000000000000000000000000000000000000000000000000800000000000000000000000000000000000000000000000000000000000000004020d14140000000000000000000000000000000000000000000000000000000000000000000000000000000000000000000000000000000000000000000000040000000000000000000000000000000000000000000000000000000000000080000000000000000000000000000000000000000000000000000000000000024000000000000000000000000000000000000000000000000000000000000002a0000000000000000000000000000000000000000000000000000000000000030000000000000000000000000000000000000000000000000000000000000001a00000000000000000000000002170d1ec7b1392611323a4c1793e580349cc5cc000000000000000000000000058c414bd85bf1d39985476dfa5fbd59af356e8f00000000000000000000000000000000000000000000000000000000000800000000000000000000000000000000000000000000000000000000000000000000a000000000000000000000000f8fd12c76c606ca9bc3dadee9706b4357e6780c0fffffffffffffffffffffffffffffffffffffffffffffffffffffffffffffc1800000000000000000000000000000000000000000000000000000000000003e8000000000000000000000000000000000000000000000000000001dd6c50ad7a000000000000000000000000000000000000000000000000000000174876e801000000000000000000000000000000000000000000000000000000174876e801000000000000000000000000f30180b9cec36f5a3762332c0f102fe8c024d64e0000000000000000000000000000000000000000000000000000000000000180000000000000000000000000000000000000000000000000000000000000000000000000000000000000000000000000000000000000000000000000000000400000000000000000000000002170d1ec7b1392611323a4c1793e580349cc5cc000000000000000000000000058c414bd85bf1d39985476dfa5fbd59af356e8f000000000000000000000000000000000000000000000000000000000000000400000000000000000000000002170d1ec7b1392611323a4c1793e580349cc5cc0000000000000000000000000f30180b9cec36f5a3762332c0f102fe8c024d64e000000000000000000000000000000000000000000000000000000000000004000000000000000000000000058c414bd85bf1d39985476dfa5fbd59af356e8f0000000000000000000000000f30180b9cec36f5a3762332c0f102fe8c024d64e00000000000000000000000000000000000000000000000000000000",
        "nonce": "0x5c",
        "chainId": "0x14a34"
      },
      "additionalContracts": [],
      "isFixedGasLimit": false
    }
  ],
  "receipts": [
    {
      "status": "0x1",
      "cumulativeGasUsed": "0x48307",
      "logs": [
        {
          "address": "0x58c414bd85bf1d39985476dfa5fbd59af356e8f0",
          "topics": [
            "0xddf252ad1be2c89b69c2b068fc378daa952ba7f163c4a11628f55a4df523b3ef",
            "0x0000000000000000000000000000000000000000000000000000000000000000",
            "0x000000000000000000000000f30180b9cec36f5a3762332c0f102fe8c024d64e"
          ],
          "data": "0x000000000000000000000000000000000000000000000000000000178411b200",
          "blockHash": "0x0000000000000000000000000000000000000000000000000000000000000000",
          "blockNumber": "0x2536f00",
          "blockTimestamp": "0x69ba3ce0",
          "transactionHash": "0xc965884bddba5302445b0f3f573c20e060f2eb15fb664df23beabdefd11c82f0",
          "transactionIndex": "0x4",
          "logIndex": "0x2",
          "removed": false
        }
      ],
      "logsBloom": "0x00000000000000000000000000000000000000000000000000000000000000000000000000000000000000000000004000000000000000000000000000000000000000000000000000000008000000000000000000000000000000000000000000000000020000000000000000000800000000000000000000000010000000000000000000000000000000000040000000000000000000000000000000000000000000000040000000000000000000000000002000000000000000000000000000008002000000000000000000000000000000000000000000000000000020000000800000000000000000000000000000000000000000000000000000000000",
      "type": "0x2",
      "transactionHash": "0xc965884bddba5302445b0f3f573c20e060f2eb15fb664df23beabdefd11c82f0",
      "transactionIndex": "0x4",
      "blockHash": "0x0000000000000000000000000000000000000000000000000000000000000000",
      "blockNumber": "0x2536f00",
      "gasUsed": "0x870a",
      "effectiveGasPrice": "0x5b8d80",
      "blobGasUsed": "0x364c",
      "from": "0xf30180b9cec36f5a3762332c0f102fe8c024d64e",
      "to": "0x58c414bd85bf1d39985476dfa5fbd59af356e8f0",
      "contractAddress": null,
      "daFootprintGasScalar": "0x8b",
      "l1BaseFeeScalar": "0x44d",
      "l1BlobBaseFee": "0x1",
      "l1BlobBaseFeeScalar": "0xa118b",
      "l1Fee": "0x51",
      "l1GasPrice": "0x9",
      "l1GasUsed": "0x640"
    },
    {
      "status": "0x1",
      "cumulativeGasUsed": "0x50a11",
      "logs": [
        {
          "address": "0x2170d1ec7b1392611323a4c1793e580349cc5cc0",
          "topics": [
            "0xddf252ad1be2c89b69c2b068fc378daa952ba7f163c4a11628f55a4df523b3ef",
            "0x0000000000000000000000000000000000000000000000000000000000000000",
            "0x000000000000000000000000f30180b9cec36f5a3762332c0f102fe8c024d64e"
          ],
          "data": "0x000000000000000000000000000000000000000000000000000000178411b200",
          "blockHash": "0x0000000000000000000000000000000000000000000000000000000000000000",
          "blockNumber": "0x2536f00",
          "blockTimestamp": "0x69ba3ce0",
          "transactionHash": "0xd891d9745a79f23eb7d9077feed9e2e63895d676b7c8dce4f4d9c8ea469fda15",
          "transactionIndex": "0x5",
          "logIndex": "0x3",
          "removed": false
        }
      ],
      "logsBloom": "0x00000000000000000000000000000000000000000000000000001000000000010000000000000000000000000000004000000000000000000000000000000000000000000000000000000008000000000000000000000000000000000000000000000000020000000000000000000800000000000000000000000010000000000000000000000000000000000040000000000080000000000000000000000000000000000000000000000000000000000000000000000000000000000000000000008002000000000000000000000000000000000000000000000000000020000000000000000000000000000000000000000000000000000000000000000000",
      "type": "0x2",
      "transactionHash": "0xd891d9745a79f23eb7d9077feed9e2e63895d676b7c8dce4f4d9c8ea469fda15",
      "transactionIndex": "0x5",
      "blockHash": "0x0000000000000000000000000000000000000000000000000000000000000000",
      "blockNumber": "0x2536f00",
      "gasUsed": "0x870a",
      "effectiveGasPrice": "0x5b8d80",
      "blobGasUsed": "0x364c",
      "from": "0xf30180b9cec36f5a3762332c0f102fe8c024d64e",
      "to": "0x2170d1ec7b1392611323a4c1793e580349cc5cc0",
      "contractAddress": null,
      "daFootprintGasScalar": "0x8b",
      "l1BaseFeeScalar": "0x44d",
      "l1BlobBaseFee": "0x1",
      "l1BlobBaseFeeScalar": "0xa118b",
      "l1Fee": "0x51",
      "l1GasPrice": "0x9",
      "l1GasUsed": "0x640"
    },
    {
      "status": "0x1",
      "cumulativeGasUsed": "0x573c7",
      "logs": [
        {
          "address": "0x2170d1ec7b1392611323a4c1793e580349cc5cc0",
          "topics": [
            "0x8c5be1e5ebec7d5bd14f71427d1e84f3dd0314c0f7b2291e5b200ac8c7c3b925",
            "0x000000000000000000000000f30180b9cec36f5a3762332c0f102fe8c024d64e",
            "0x000000000000000000000000000000000022d473030f116ddee9f6b43ac78ba3"
          ],
          "data": "0xffffffffffffffffffffffffffffffffffffffffffffffffffffffffffffffff",
          "blockHash": "0x0000000000000000000000000000000000000000000000000000000000000000",
          "blockNumber": "0x2536f00",
          "blockTimestamp": "0x69ba3ce0",
          "transactionHash": "0xcd9987838b159d4d2546b61cc29763bc9827c6c14f922d5d4fbe62cb161713be",
          "transactionIndex": "0x6",
          "logIndex": "0x4",
          "removed": false
        }
      ],
      "logsBloom": "0x00000000000000000000000000000000000000000000000000001000000000010000000000000000000000000000004000000000800000000000000000200000000000000000000000004000000000000000000000000800000000000000000000000000000000000000000000000000000000000000000000000000000000000000000000000000000000000040000000000080000000000000000000000000020000000000000000000000000000000000000000000000000000000000000000008000000000000000000000000000000000000000000000000000000000000010000000000000000000000000000000000000000000000000000000000000",
      "type": "0x2",
      "transactionHash": "0xcd9987838b159d4d2546b61cc29763bc9827c6c14f922d5d4fbe62cb161713be",
      "transactionIndex": "0x6",
      "blockHash": "0x0000000000000000000000000000000000000000000000000000000000000000",
      "blockNumber": "0x2536f00",
      "gasUsed": "0x69b6",
      "effectiveGasPrice": "0x5b8d80",
      "blobGasUsed": "0x364c",
      "from": "0xf30180b9cec36f5a3762332c0f102fe8c024d64e",
      "to": "0x2170d1ec7b1392611323a4c1793e580349cc5cc0",
      "contractAddress": null,
      "daFootprintGasScalar": "0x8b",
      "l1BaseFeeScalar": "0x44d",
      "l1BlobBaseFee": "0x1",
      "l1BlobBaseFeeScalar": "0xa118b",
      "l1Fee": "0x51",
      "l1GasPrice": "0x9",
      "l1GasUsed": "0x640"
    },
    {
      "status": "0x1",
      "cumulativeGasUsed": "0x5dd7d",
      "logs": [
        {
          "address": "0x58c414bd85bf1d39985476dfa5fbd59af356e8f0",
          "topics": [
            "0x8c5be1e5ebec7d5bd14f71427d1e84f3dd0314c0f7b2291e5b200ac8c7c3b925",
            "0x000000000000000000000000f30180b9cec36f5a3762332c0f102fe8c024d64e",
            "0x000000000000000000000000000000000022d473030f116ddee9f6b43ac78ba3"
          ],
          "data": "0xffffffffffffffffffffffffffffffffffffffffffffffffffffffffffffffff",
          "blockHash": "0x0000000000000000000000000000000000000000000000000000000000000000",
          "blockNumber": "0x2536f00",
          "blockTimestamp": "0x69ba3ce0",
          "transactionHash": "0x78650487690a7b2e84d96be6b9003c24df45c22b8178ee7761d9590afcf7d500",
          "transactionIndex": "0x7",
          "logIndex": "0x5",
          "removed": false
        }
      ],
      "logsBloom": "0x00000000000000000000000000000000000000000000000000000000000000000000000000000000000000000000004000000000800000000000000000200000000000000000000000004000000000000000000000000800000000000000000000000000000000000000000000000000000000000000000000000000000000000000000000000000000000000040000000000000000000000000000000000000020000000040000000000000000000000000002000000000000000000000000000008000000000000000000000000000000000000000000000000000000000000010800000000000000000000000000000000000000000000000000000000000",
      "type": "0x2",
      "transactionHash": "0x78650487690a7b2e84d96be6b9003c24df45c22b8178ee7761d9590afcf7d500",
      "transactionIndex": "0x7",
      "blockHash": "0x0000000000000000000000000000000000000000000000000000000000000000",
      "blockNumber": "0x2536f00",
      "gasUsed": "0x69b6",
      "effectiveGasPrice": "0x5b8d80",
      "blobGasUsed": "0x364c",
      "from": "0xf30180b9cec36f5a3762332c0f102fe8c024d64e",
      "to": "0x58c414bd85bf1d39985476dfa5fbd59af356e8f0",
      "contractAddress": null,
      "daFootprintGasScalar": "0x8b",
      "l1BaseFeeScalar": "0x44d",
      "l1BlobBaseFee": "0x1",
      "l1BlobBaseFeeScalar": "0xa118b",
      "l1Fee": "0x51",
      "l1GasPrice": "0x9",
      "l1GasUsed": "0x640"
    },
    {
      "status": "0x1",
      "cumulativeGasUsed": "0x64a8b",
      "logs": [
        {
          "address": "0x000000000022d473030f116ddee9f6b43ac78ba3",
          "topics": [
            "0xda9fa7c1b00402c17d0161b249b1ab8bbec047c5a52207b9c112deffd817036b",
            "0x000000000000000000000000f30180b9cec36f5a3762332c0f102fe8c024d64e",
            "0x0000000000000000000000002170d1ec7b1392611323a4c1793e580349cc5cc0",
            "0x0000000000000000000000004b2c77d209d3405f41a037ec6c77f7f5b8e2ca80"
          ],
          "data": "0x000000000000000000000000ffffffffffffffffffffffffffffffffffffffff0000000000000000000000000000000000000000000000000000ffffffffffff",
          "blockHash": "0x0000000000000000000000000000000000000000000000000000000000000000",
          "blockNumber": "0x2536f00",
          "blockTimestamp": "0x69ba3ce0",
          "transactionHash": "0xf754caa1b62f142e2b8fcd5ff83036fe1e35575af6df0b65397a17c80397a1fb",
          "transactionIndex": "0x8",
          "logIndex": "0x6",
          "removed": false
        }
      ],
      "logsBloom": "0x00010000000000010000000000000000000000000000000000000000000000000000000000000000800000000000004000000000000000000008000010080000000000000000000000000000000000000000000000000000000000000000000000000000000000000000000000000000000000000000000000000000000100000020000000000000000000000040000000000000000000000000000000000000000000000000000000000000000000000000000000000000000000080000000000008000000000000000000000020000000000000000000040000000000000000000000000000000000000000000000000000000000000000000000000000400",
      "type": "0x2",
      "transactionHash": "0xf754caa1b62f142e2b8fcd5ff83036fe1e35575af6df0b65397a17c80397a1fb",
      "transactionIndex": "0x8",
      "blockHash": "0x0000000000000000000000000000000000000000000000000000000000000000",
      "blockNumber": "0x2536f00",
      "gasUsed": "0x6d0e",
      "effectiveGasPrice": "0x5b8d80",
      "blobGasUsed": "0x3c45",
      "from": "0xf30180b9cec36f5a3762332c0f102fe8c024d64e",
      "to": "0x000000000022d473030f116ddee9f6b43ac78ba3",
      "contractAddress": null,
      "daFootprintGasScalar": "0x8b",
      "l1BaseFeeScalar": "0x44d",
      "l1BlobBaseFee": "0x1",
      "l1BlobBaseFeeScalar": "0xa118b",
      "l1Fee": "0x51",
      "l1GasPrice": "0x9",
      "l1GasUsed": "0x6f5"
    },
    {
      "status": "0x1",
      "cumulativeGasUsed": "0x6b799",
      "logs": [
        {
          "address": "0x000000000022d473030f116ddee9f6b43ac78ba3",
          "topics": [
            "0xda9fa7c1b00402c17d0161b249b1ab8bbec047c5a52207b9c112deffd817036b",
            "0x000000000000000000000000f30180b9cec36f5a3762332c0f102fe8c024d64e",
            "0x00000000000000000000000058c414bd85bf1d39985476dfa5fbd59af356e8f0",
            "0x0000000000000000000000004b2c77d209d3405f41a037ec6c77f7f5b8e2ca80"
          ],
          "data": "0x000000000000000000000000ffffffffffffffffffffffffffffffffffffffff0000000000000000000000000000000000000000000000000000ffffffffffff",
          "blockHash": "0x0000000000000000000000000000000000000000000000000000000000000000",
          "blockNumber": "0x2536f00",
          "blockTimestamp": "0x69ba3ce0",
          "transactionHash": "0x2edbc5be3ff62d58b66700a74a8361862542e189c6098bc2c51cccc602d310b5",
          "transactionIndex": "0x9",
          "logIndex": "0x7",
          "removed": false
        }
      ],
      "logsBloom": "0x00010000000000010000000000000000002000000000000000000000000000000000000000000000000000000000004080000000000000000008000010080000000000000000000000000000000000000000000000000000000000000000000000000000000000000000000000000000000000000000000000000000000000000020000000000000000000000040000000000000000000000000000000000000000000000000000000000000000000004000000000000000000000080000000000008000000000000000000000000000000000000000000040000000000000000000000000000000000000000000000000000000000000000000000000000400",
      "type": "0x2",
      "transactionHash": "0x2edbc5be3ff62d58b66700a74a8361862542e189c6098bc2c51cccc602d310b5",
      "transactionIndex": "0x9",
      "blockHash": "0x0000000000000000000000000000000000000000000000000000000000000000",
      "blockNumber": "0x2536f00",
      "gasUsed": "0x6d0e",
      "effectiveGasPrice": "0x5b8d80",
      "blobGasUsed": "0x3c45",
      "from": "0xf30180b9cec36f5a3762332c0f102fe8c024d64e",
      "to": "0x000000000022d473030f116ddee9f6b43ac78ba3",
      "contractAddress": null,
      "daFootprintGasScalar": "0x8b",
      "l1BaseFeeScalar": "0x44d",
      "l1BlobBaseFee": "0x1",
      "l1BlobBaseFeeScalar": "0xa118b",
      "l1Fee": "0x51",
      "l1GasPrice": "0x9",
      "l1GasUsed": "0x6f5"
    },
    {
      "status": "0x1",
      "cumulativeGasUsed": "0xd671e",
      "logs": [
        {
          "address": "0x05e73354cfdd6745c338b50bcfdfa3aa6fa03408",
          "topics": [
            "0xdd466e674ea557f56295e2d0218a125ea4b4f0f6f3307b95f85e6110838d6438",
            "0xbf3bb13efd5d8a8770a2ac977e396f0ba4f8cc469ff66f93e0c309d33475aebc",
            "0x0000000000000000000000002170d1ec7b1392611323a4c1793e580349cc5cc0",
            "0x00000000000000000000000058c414bd85bf1d39985476dfa5fbd59af356e8f0"
          ],
          "data": "0x0000000000000000000000000000000000000000000000000000000000800000000000000000000000000000000000000000000000000000000000000000000a000000000000000000000000f8fd12c76c606ca9bc3dadee9706b4357e6780c000000000000000000000000000000000000000010000000000000000000000000000000000000000000000000000000000000000000000000000000000000000",
          "blockHash": "0x0000000000000000000000000000000000000000000000000000000000000000",
          "blockNumber": "0x2536f00",
          "blockTimestamp": "0x69ba3ce0",
          "transactionHash": "0x2621c7647986fb76e7a31324475ad6bc2fa1ed94768c96701db77f638282e205",
          "transactionIndex": "0xa",
          "logIndex": "0x8",
          "removed": false
        },
        {
          "address": "0x4b2c77d209d3405f41a037ec6c77f7f5b8e2ca80",
          "topics": [
            "0xddf252ad1be2c89b69c2b068fc378daa952ba7f163c4a11628f55a4df523b3ef",
            "0x0000000000000000000000000000000000000000000000000000000000000000",
            "0x000000000000000000000000f30180b9cec36f5a3762332c0f102fe8c024d64e",
            "0x00000000000000000000000000000000000000000000000000000000000050e5"
          ],
          "data": "0x",
          "blockHash": "0x0000000000000000000000000000000000000000000000000000000000000000",
          "blockNumber": "0x2536f00",
          "blockTimestamp": "0x69ba3ce0",
          "transactionHash": "0x2621c7647986fb76e7a31324475ad6bc2fa1ed94768c96701db77f638282e205",
          "transactionIndex": "0xa",
          "logIndex": "0x9",
          "removed": false
        },
        {
          "address": "0x05e73354cfdd6745c338b50bcfdfa3aa6fa03408",
          "topics": [
            "0xf208f4912782fd25c7f114ca3723a2d5dd6f3bcc3ac8db5af63baa85f711d5ec",
            "0xbf3bb13efd5d8a8770a2ac977e396f0ba4f8cc469ff66f93e0c309d33475aebc",
            "0x0000000000000000000000004b2c77d209d3405f41a037ec6c77f7f5b8e2ca80"
          ],
          "data": "0xfffffffffffffffffffffffffffffffffffffffffffffffffffffffffffffc1800000000000000000000000000000000000000000000000000000000000003e8000000000000000000000000000000000000000000000000000001dd6c50ad7a00000000000000000000000000000000000000000000000000000000000050e5",
          "blockHash": "0x0000000000000000000000000000000000000000000000000000000000000000",
          "blockNumber": "0x2536f00",
          "blockTimestamp": "0x69ba3ce0",
          "transactionHash": "0x2621c7647986fb76e7a31324475ad6bc2fa1ed94768c96701db77f638282e205",
          "transactionIndex": "0xa",
          "logIndex": "0xa",
          "removed": false
        },
        {
          "address": "0x2170d1ec7b1392611323a4c1793e580349cc5cc0",
          "topics": [
            "0xddf252ad1be2c89b69c2b068fc378daa952ba7f163c4a11628f55a4df523b3ef",
            "0x000000000000000000000000f30180b9cec36f5a3762332c0f102fe8c024d64e",
            "0x00000000000000000000000005e73354cfdd6745c338b50bcfdfa3aa6fa03408"
          ],
          "data": "0x000000000000000000000000000000000000000000000000000000174876e800",
          "blockHash": "0x0000000000000000000000000000000000000000000000000000000000000000",
          "blockNumber": "0x2536f00",
          "blockTimestamp": "0x69ba3ce0",
          "transactionHash": "0x2621c7647986fb76e7a31324475ad6bc2fa1ed94768c96701db77f638282e205",
          "transactionIndex": "0xa",
          "logIndex": "0xb",
          "removed": false
        },
        {
          "address": "0x58c414bd85bf1d39985476dfa5fbd59af356e8f0",
          "topics": [
            "0xddf252ad1be2c89b69c2b068fc378daa952ba7f163c4a11628f55a4df523b3ef",
            "0x000000000000000000000000f30180b9cec36f5a3762332c0f102fe8c024d64e",
            "0x00000000000000000000000005e73354cfdd6745c338b50bcfdfa3aa6fa03408"
          ],
          "data": "0x000000000000000000000000000000000000000000000000000000174876e800",
          "blockHash": "0x0000000000000000000000000000000000000000000000000000000000000000",
          "blockNumber": "0x2536f00",
          "blockTimestamp": "0x69ba3ce0",
          "transactionHash": "0x2621c7647986fb76e7a31324475ad6bc2fa1ed94768c96701db77f638282e205",
          "transactionIndex": "0xa",
          "logIndex": "0xc",
          "removed": false
        }
      ],
      "logsBloom": "0x00000000000000010000000000000000002000000000000000001000000000010100000100000000800000000000004080000000000000002008000010000800000000000010000000000008000000000000000000100000000000008000004000000000020000000000000004004800000000000000000000000010000100000000000005000008000000000040000000000081000000000000000000200000000004000040000000000000000000004000002000000000000000000000000000008002001000000000000000020000000000000000000000000000000020000004800000000000000000000800000004000000008000000000000000000000",
      "type": "0x2",
      "transactionHash": "0x2621c7647986fb76e7a31324475ad6bc2fa1ed94768c96701db77f638282e205",
      "transactionIndex": "0xa",
      "blockHash": "0x0000000000000000000000000000000000000000000000000000000000000000",
      "blockNumber": "0x2536f00",
      "gasUsed": "0x6af85",
      "effectiveGasPrice": "0x5b8d80",
      "blobGasUsed": "0xb18d",
      "from": "0xf30180b9cec36f5a3762332c0f102fe8c024d64e",
      "to": "0x4b2c77d209d3405f41a037ec6c77f7f5b8e2ca80",
      "contractAddress": null,
      "daFootprintGasScalar": "0x8b",
      "l1BaseFeeScalar": "0x44d",
      "l1BlobBaseFee": "0x1",
      "l1BlobBaseFeeScalar": "0xa118b",
      "l1Fee": "0x51",
      "l1GasPrice": "0x9",
      "l1GasUsed": "0x1472"
    }
  ],
  "libraries": [],
  "pending": [],
  "returns": {},
  "timestamp": 1773812958434,
  "chain": 84532,
  "commit": "13d7ddb"
}