{
  "transactions": [
    {
      "hash": "0xdc08c6a02dce2db5a4f29eaa7c69c137694aa34ecb3b24c95f7b15f839f56591",
      "transactionType": "CALL",
      "contractName": "MockStablecoin",
      "contractAddress": "0x58c414bd85bf1d39985476dfa5fbd59af356e8f0",
      "function": "mint(address,uint256)",
      "arguments": [
        "0xF30180b9CeC36f5a3762332c0f102Fe8C024D64e",
        "101000000000"
      ],
      "transaction": {
        "from": "0xf30180b9cec36f5a3762332c0f102fe8c024d64e",
        "to": "0x58c414bd85bf1d39985476dfa5fbd59af356e8f0",
        "gas": "0xc57e",
        "value": "0x0",
        "input": "0x40c10f19000000000000000000000000f30180b9cec36f5a3762332c0f102fe8c024d64e000000000000000000000000000000000000000000000000000000178411b200",
        "nonce": "0x5d",
        "chainId": "0xaa36a7"
      },
      "additionalContracts": [],
      "isFixedGasLimit": false
    },
    {
      "hash": "0xd7d5302a82c6cc6dfce196596fc188d942b7a3f0146fa39a3c7f4906286769a3",
      "transactionType": "CALL",
      "contractName": "MockStablecoin",
      "contractAddress": "0x2170d1ec7b1392611323a4c1793e580349cc5cc0",
      "function": "mint(address,uint256)",
      "arguments": [
        "0xF30180b9CeC36f5a3762332c0f102Fe8C024D64e",
        "101000000000"
      ],
      "transaction": {
        "from": "0xf30180b9cec36f5a3762332c0f102fe8c024d64e",
        "to": "0x2170d1ec7b1392611323a4c1793e580349cc5cc0",
        "gas": "0xc57e",
        "value": "0x0",
        "input": "0x40c10f19000000000000000000000000f30180b9cec36f5a3762332c0f102fe8c024d64e000000000000000000000000000000000000000000000000000000178411b200",
        "nonce": "0x5e",
        "chainId": "0xaa36a7"
      },
      "additionalContracts": [],
      "isFixedGasLimit": false
    },
    {
      "hash": "0x3f1d89bd3d52ae6bd5df27227b286d85685642bbee9d29067268e9a03fd46c0d",
      "transactionType": "CALL",
      "contractName": "MockStablecoin",
      "contractAddress": "0x2170d1ec7b1392611323a4c1793e580349cc5cc0",
      "function": "approve(address,uint256)",
      "arguments": [
        "0x000000000022D473030F116dDEE9F6B43aC78BA3",
        "115792089237316195423570985008687907853269984665640564039457584007913129639935"
      ],
      "transaction": {
        "from": "0xf30180b9cec36f5a3762332c0f102fe8c024d64e",
        "to": "0x2170d1ec7b1392611323a4c1793e580349cc5cc0",
        "gas": "0x9202",
        "value": "0x0",
        "input": "0x095ea7b3000000000000000000000000000000000022d473030f116ddee9f6b43ac78ba3ffffffffffffffffffffffffffffffffffffffffffffffffffffffffffffffff",
        "nonce": "0x5f",
        "chainId": "0xaa36a7"
      },
      "additionalContracts": [],
      "isFixedGasLimit": false
    },
    {
      "hash": "0x19f47fde56958f56e9f4211673d5c9043a4c62a83d7794eca3997879073ba179",
      "transactionType": "CALL",
      "contractName": "MockStablecoin",
      "contractAddress": "0x58c414bd85bf1d39985476dfa5fbd59af356e8f0",
      "function": "approve(address,uint256)",
      "arguments": [
        "0x000000000022D473030F116dDEE9F6B43aC78BA3",
        "115792089237316195423570985008687907853269984665640564039457584007913129639935"
      ],
      "transaction": {
        "from": "0xf30180b9cec36f5a3762332c0f102fe8c024d64e",
        "to": "0x58c414bd85bf1d39985476dfa5fbd59af356e8f0",
        "gas": "0x9202",
        "value": "0x0",
        "input": "0x095ea7b3000000000000000000000000000000000022d473030f116ddee9f6b43ac78ba3ffffffffffffffffffffffffffffffffffffffffffffffffffffffffffffffff",
        "nonce": "0x60",
        "chainId": "0xaa36a7"
      },
      "additionalContracts": [],
      "isFixedGasLimit": false
    },
    {
      "hash": "0xe1febda5067e9cfcc4254bf9deaff117fcdb21763bafb960cc744c8e290e0ba9",
      "transactionType": "CALL",
      "contractName": null,
      "contractAddress": "0x000000000022d473030f116ddee9f6b43ac78ba3",
      "function": "approve(address,address,uint160,uint48)",
      "arguments": [
        "0x2170d1eC7B1392611323A4c1793e580349CC5CC0",
        "0x429ba70129df741B2Ca2a85BC3A2a3328e5c09b4",
        "1461501637330902918203684832716283019655932542975",
        "281474976710655"
      ],
      "transaction": {
        "from": "0xf30180b9cec36f5a3762332c0f102fe8c024d64e",
        "to": "0x000000000022d473030f116ddee9f6b43ac78ba3",
        "gas": "0x96a0",
        "value": "0x0",
        "input": "0x87517c450000000000000000000000002170d1ec7b1392611323a4c1793e580349cc5cc0000000000000000000000000429ba70129df741b2ca2a85bc3a2a3328e5c09b4000000000000000000000000ffffffffffffffffffffffffffffffffffffffff0000000000000000000000000000000000000000000000000000ffffffffffff",
        "nonce": "0x61",
        "chainId": "0xaa36a7"
      },
      "additionalContracts": [],
      "isFixedGasLimit": false
    },
    {
      "hash": "0x64d462d8f4d15fc47faca5f5809f749f36a7a6ffcf94b9c90ca05f9e538f5ff7",
      "transactionType": "CALL",
      "contractName": null,
      "contractAddress": "0x000000000022d473030f116ddee9f6b43ac78ba3",
      "function": "approve(address,address,uint160,uint48)",
      "arguments": [
        "0x58C414Bd85bf1d39985476Dfa5fBd59af356E8f0",
        "0x429ba70129df741B2Ca2a85BC3A2a3328e5c09b4",
        "1461501637330902918203684832716283019655932542975",
        "281474976710655"
      ],
      "transaction": {
        "from": "0xf30180b9cec36f5a3762332c0f102fe8c024d64e",
        "to": "0x000000000022d473030f116ddee9f6b43ac78ba3",
        "gas": "0x96a0",
        "value": "0x0",
        "input": "0x87517c4500000000000000000000000058c414bd85bf1d39985476dfa5fbd59af356e8f0000000000000000000000000429ba70129df741b2ca2a85bc3a2a3328e5c09b4000000000000000000000000ffffffffffffffffffffffffffffffffffffffff0000000000000000000000000000000000000000000000000000ffffffffffff",
        "nonce": "0x62",
        "chainId": "0xaa36a7"
      },
      "additionalContracts": [],
      "isFixedGasLimit": false
    },
    {
      "hash": "0x38c4d2f26c309e6ac4a6ab2e78b0a17c91a475a54038f6834c5675cdda49ca4d",
      "transactionType": "CALL",
      "contractName": null,
      "contractAddress": "0x429ba70129df741b2ca2a85bc3a2a3328e5c09b4",
      "function": "multicall(bytes[])",
      "arguments": [
        "[0xf70204050000000000000000000000002170d1ec7b1392611323a4c1793e580349cc5cc000000000000000000000000058c414bd85bf1d39985476dfa5fbd59af356e8f00000000000000000000000000000000000000000000000000000000000800000000000000000000000000000000000000000000000000000000000000000000a000000000000000000000000d3ad90041576954255d8fa1325774b90e501c0c0000000000000000000000000000000000000000100000000000000000000000000000000000000000000000000000000000000000000000000000000000000e00000000000000000000000000000000000000000000000000000000000000000, 0xdd46508f00000000000000000000000000000000000000000000000000000000000000400000000000000000000000000000000000000000000000000000000069b97cf00000000000000000000000000000000000000000000000000000000000000400000000000000000000000000000000000000000000000000000000000000004000000000000000000000000000000000000000000000000000000000000000800000000000000000000000000000000000000000000000000000000000000004020d14140000000000000000000000000000000000000000000000000000000000000000000000000000000000000000000000000000000000000000000000040000000000000000000000000000000000000000000000000000000000000080000000000000000000000000000000000000000000000000000000000000024000000000000000000000000000000000000000000000000000000000000002a0000000000000000000000000000000000000000000000000000000000000030000000000000000000000000000000000000000000000000000000000000001a00000000000000000000000002170d1ec7b1392611323a4c1793e580349cc5cc000000000000000000000000058c414bd85bf1d39985476dfa5fbd59af356e8f00000000000000000000000000000000000000000000000000000000000800000000000000000000000000000000000000000000000000000000000000000000a000000000000000000000000d3ad90041576954255d8fa1325774b90e501c0c0fffffffffffffffffffffffffffffffffffffffffffffffffffffffffffffc1800000000000000000000000000000000000000000000000000000000000003e8000000000000000000000000000000000000000000000000000001dd6c50ad7a000000000000000000000000000000000000000000000000000000174876e801000000000000000000000000000000000000000000000000000000174876e801000000000000000000000000f30180b9cec36f5a3762332c0f102fe8c024d64e0000000000000000000000000000000000000000000000000000000000000180000000000000000000000000000000000000000000000000000000000000000000000000000000000000000000000000000000000000000000000000000000400000000000000000000000002170d1ec7b1392611323a4c1793e580349cc5cc000000000000000000000000058c414bd85bf1d39985476dfa5fbd59af356e8f000000000000000000000000000000000000000000000000000000000000000400000000000000000000000002170d1ec7b1392611323a4c1793e580349cc5cc0000000000000000000000000f30180b9cec36f5a3762332c0f102fe8c024d64e000000000000000000000000000000000000000000000000000000000000004000000000000000000000000058c414bd85bf1d39985476dfa5fbd59af356e8f0000000000000000000000000f30180b9cec36f5a3762332c0f102fe8c024d64e]"
      ],
      "transaction": {
        "from": "0xf30180b9cec36f5a3762332c0f102fe8c024d64e",
        "to": "0x429ba70129df741b2ca2a85bc3a2a3328e5c09b4",
        "gas": "0x93c08",
        "value": "0x0",
        "input": "0xac9650d800000000000000000000000000000000000000000000000000000000000000200000000000000000000000000000000000000000000000000000000000000002000000000000000000000000000000000000000000000000000000000000004000000000000000000000000000000000000000000000000000000000000001800000000000000000000000000000000000000000000000000000000000000104f70204050000000000000000000000002170d1ec7b1392611323a4c1793e580349cc5cc000000000000000000000000058c414bd85bf1d39985476dfa5fbd59af356e8f00000000000000000000000000000000000000000000000000000000000800000000000000000000000000000000000000000000000000000000000000000000a000000000000000000000000d3ad90041576954255d8fa1325774b90e501c0c0000000000000000000000000000000000000000100000000000000000000000000000000000000000000000000000000000000000000000000000000000000e00000000000000000000000000000000000000000000000000000000000000000000000000000000000000000000000000000000000000000000000000000000000000000000000000000000000000000000000000000000000000464dd46508f00000000000000000000000000000000000000000000000000000000000000400000000000000000000000000000000000000000000000000000000069b97cf00000000000000000000000000000000000000000000000000000000000000400000000000000000000000000000000000000000000000000000000000000004000000000000000000000000000000000000000000000000000000000000000800000000000000000000000000000000000000000000000000000000000000004020d14140000000000000000000000000000000000000000000000000000000000000000000000000000000000000000000000000000000000000000000000040000000000000000000000000000000000000000000000000000000000000080000000000000000000000000000000000000000000000000000000000000024000000000000000000000000000000000000000000000000000000000000002a0000000000000000000000000000000000000000000000000000000000000030000000000000000000000000000000000000000000000000000000000000001a00000000000000000000000002170d1ec7b1392611323a4c1793e580349cc5cc000000000000000000000000058c414bd85bf1d39985476dfa5fbd59af356e8f00000000000000000000000000000000000000000000000000000000000800000000000000000000000000000000000000000000000000000000000000000000a000000000000000000000000d3ad90041576954255d8fa1325774b90e501c0c0fffffffffffffffffffffffffffffffffffffffffffffffffffffffffffffc1800000000000000000000000000000000000000000000000000000000000003e8000000000000000000000000000000000000000000000000000001dd6c50ad7a000000000000000000000000000000000000000000000000000000174876e801000000000000000000000000000000000000000000000000000000174876e801000000000000000000000000f30180b9cec36f5a3762332c0f102fe8c024d64e0000000000000000000000000000000000000000000000000000000000000180000000000000000000000000000000000000000000000000000000000000000000000000000000000000000000000000000000000000000000000000000000400000000000000000000000002170d1ec7b1392611323a4c1793e580349cc5cc000000000000000000000000058c414bd85bf1d39985476dfa5fbd59af356e8f000000000000000000000000000000000000000000000000000000000000000400000000000000000000000002170d1ec7b1392611323a4c1793e580349cc5cc0000000000000000000000000f30180b9cec36f5a3762332c0f102fe8c024d64e000000000000000000000000000000000000000000000000000000000000004000000000000000000000000058c414bd85bf1d39985476dfa5fbd59af356e8f0000000000000000000000000f30180b9cec36f5a3762332c0f102fe8c024d64e00000000000000000000000000000000000000000000000000000000",
        "nonce": "0x63",
        "chainId": "0xaa36a7"
      },
      "additionalContracts": [],
      "isFixedGasLimit": false
    }
  ],
  "receipts": [
    {
      "status": "0x1",
      "cumulativeGasUsed": "0xd0dd4c",
      "logs": [
        {
          "address": "0x58c414bd85bf1d39985476dfa5fbd59af356e8f0",
          "topics": [
            "0xddf252ad1be2c89b69c2b068fc378daa952ba7f163c4a11628f55a4df523b3ef",
            "0x0000000000000000000000000000000000000000000000000000000000000000",
            "0x000000000000000000000000f30180b9cec36f5a3762332c0f102fe8c024d64e"
          ],
          "data": "0x000000000000000000000000000000000000000000000000000000178411b200",
          "blockHash": "0x32bdf18db19aad26a396747acfd89e264217bac4dcd79359d629f533cadf5de8",
          "blockNumber": "0x9facba",
          "blockTimestamp": "0x69b96ef8",
          "transactionHash": "0xd7d5302a82c6cc6dfce196596fc188d942b7a3f0146fa39a3c7f4906286769a3",
          "transactionIndex": "0x68",
          "logIndex": "0x124",
          "removed": false
        }
      ],
      "logsBloom": "0x00000000000000000000000000000000000000000000000000000000000000000000000000000000000000000000004000000000000000000000000000000000000000000000000000000008000000000000000000000000000000000000000000000000020000000000000000000800000000000000000000000010000000000000000000000000000000000040000000000000000000000000000000000000000000000040000000000000000000000000002000000000000000000000000000008002000000000000000000000000000000000000000000000000000020000000800000000000000000000000000000000000000000000000000000000000",
      "type": "0x2",
      "transactionHash": "0xd7d5302a82c6cc6dfce196596fc188d942b7a3f0146fa39a3c7f4906286769a3",
      "transactionIndex": "0x68",
      "blockHash": "0x32bdf18db19aad26a396747acfd89e264217bac4dcd79359d629f533cadf5de8",
      "blockNumber": "0x9facba",
      "gasUsed": "0x870a",
      "effectiveGasPrice": "0xf424a",
      "from": "0xf30180b9cec36f5a3762332c0f102fe8c024d64e",
      "to": "0x58c414bd85bf1d39985476dfa5fbd59af356e8f0",
      "contractAddress": null
    },
    {
      "status": "0x1",
      "cumulativeGasUsed": "0xd16456",
      "logs": [
        {
          "address": "0x2170d1ec7b1392611323a4c1793e580349cc5cc0",
          "topics": [
            "0xddf252ad1be2c89b69c2b068fc378daa952ba7f163c4a11628f55a4df523b3ef",
            "0x0000000000000000000000000000000000000000000000000000000000000000",
            "0x000000000000000000000000f30180b9cec36f5a3762332c0f102fe8c024d64e"
          ],
          "data": "0x000000000000000000000000000000000000000000000000000000178411b200",
          "blockHash": "0x32bdf18db19aad26a396747acfd89e264217bac4dcd79359d629f533cadf5de8",
          "blockNumber": "0x9facba",
          "blockTimestamp": "0x69b96ef8",
          "transactionHash": "0xdc08c6a02dce2db5a4f29eaa7c69c137694aa34ecb3b24c95f7b15f839f56591",
          "transactionIndex": "0x69",
          "logIndex": "0x125",
          "removed": false
        }
      ],
      "logsBloom": "0x00000000000000000000000000000000000000000000000000001000000000010000000000000000000000000000004000000000000000000000000000000000000000000000000000000008000000000000000000000000000000000000000000000000020000000000000000000800000000000000000000000010000000000000000000000000000000000040000000000080000000000000000000000000000000000000000000000000000000000000000000000000000000000000000000008002000000000000000000000000000000000000000000000000000020000000000000000000000000000000000000000000000000000000000000000000",
      "type": "0x2",
      "transactionHash": "0xdc08c6a02dce2db5a4f29eaa7c69c137694aa34ecb3b24c95f7b15f839f56591",
      "transactionIndex": "0x69",
      "blockHash": "0x32bdf18db19aad26a396747acfd89e264217bac4dcd79359d629f533cadf5de8",
      "blockNumber": "0x9facba",
      "gasUsed": "0x870a",
      "effectiveGasPrice": "0xf424a",
      "from": "0xf30180b9cec36f5a3762332c0f102fe8c024d64e",
      "to": "0x2170d1ec7b1392611323a4c1793e580349cc5cc0",
      "contractAddress": null
    },
    {
      "status": "0x1",
      "cumulativeGasUsed": "0xd1ce0c",
      "logs": [
        {
          "address": "0x2170d1ec7b1392611323a4c1793e580349cc5cc0",
          "topics": [
            "0x8c5be1e5ebec7d5bd14f71427d1e84f3dd0314c0f7b2291e5b200ac8c7c3b925",
            "0x000000000000000000000000f30180b9cec36f5a3762332c0f102fe8c024d64e",
            "0x000000000000000000000000000000000022d473030f116ddee9f6b43ac78ba3"
          ],
          "data": "0xffffffffffffffffffffffffffffffffffffffffffffffffffffffffffffffff",
          "blockHash": "0x32bdf18db19aad26a396747acfd89e264217bac4dcd79359d629f533cadf5de8",
          "blockNumber": "0x9facba",
          "blockTimestamp": "0x69b96ef8",
          "transactionHash": "0x3f1d89bd3d52ae6bd5df27227b286d85685642bbee9d29067268e9a03fd46c0d",
          "transactionIndex": "0x6a",
          "logIndex": "0x126",
          "removed": false
        }
      ],
      "logsBloom": "0x00000000000000000000000000000000000000000000000000001000000000010000000000000000000000000000004000000000800000000000000000200000000000000000000000004000000000000000000000000800000000000000000000000000000000000000000000000000000000000000000000000000000000000000000000000000000000000040000000000080000000000000000000000000020000000000000000000000000000000000000000000000000000000000000000008000000000000000000000000000000000000000000000000000000000000010000000000000000000000000000000000000000000000000000000000000",
      "type": "0x2",
      "transactionHash": "0x3f1d89bd3d52ae6bd5df27227b286d85685642bbee9d29067268e9a03fd46c0d",
      "transactionIndex": "0x6a",
      "blockHash": "0x32bdf18db19aad26a396747acfd89e264217bac4dcd79359d629f533cadf5de8",
      "blockNumber": "0x9facba",
      "gasUsed": "0x69b6",
      "effectiveGasPrice": "0xf424a",
      "from": "0xf30180b9cec36f5a3762332c0f102fe8c024d64e",
      "to": "0x2170d1ec7b1392611323a4c1793e580349cc5cc0",
      "contractAddress": null
    },
    {
      "status": "0x1",
      "cumulativeGasUsed": "0xd237c2",
      "logs": [
        {
          "address": "0x58c414bd85bf1d39985476dfa5fbd59af356e8f0",
          "topics": [
            "0x8c5be1e5ebec7d5bd14f71427d1e84f3dd0314c0f7b2291e5b200ac8c7c3b925",
            "0x000000000000000000000000f30180b9cec36f5a3762332c0f102fe8c024d64e",
            "0x000000000000000000000000000000000022d473030f116ddee9f6b43ac78ba3"
          ],
          "data": "0xffffffffffffffffffffffffffffffffffffffffffffffffffffffffffffffff",
          "blockHash": "0x32bdf18db19aad26a396747acfd89e264217bac4dcd79359d629f533cadf5de8",
          "blockNumber": "0x9facba",
          "blockTimestamp": "0x69b96ef8",
          "transactionHash": "0x64d462d8f4d15fc47faca5f5809f749f36a7a6ffcf94b9c90ca05f9e538f5ff7",
          "transactionIndex": "0x6b",
          "logIndex": "0x127",
          "removed": false
        }
      ],
      "logsBloom": "0x00000000000000000000000000000000000000000000000000000000000000000000000000000000000000000000004000000000800000000000000000200000000000000000000000004000000000000000000000000800000000000000000000000000000000000000000000000000000000000000000000000000000000000000000000000000000000000040000000000000000000000000000000000000020000000040000000000000000000000000002000000000000000000000000000008000000000000000000000000000000000000000000000000000000000000010800000000000000000000000000000000000000000000000000000000000",
      "type": "0x2",
      "transactionHash": "0x64d462d8f4d15fc47faca5f5809f749f36a7a6ffcf94b9c90ca05f9e538f5ff7",
      "transactionIndex": "0x6b",
      "blockHash": "0x32bdf18db19aad26a396747acfd89e264217bac4dcd79359d629f533cadf5de8",
      "blockNumber": "0x9facba",
      "gasUsed": "0x69b6",
      "effectiveGasPrice": "0xf424a",
      "from": "0xf30180b9cec36f5a3762332c0f102fe8c024d64e",
      "to": "0x58c414bd85bf1d39985476dfa5fbd59af356e8f0",
      "contractAddress": null
    },
    {
      "status": "0x1",
      "cumulativeGasUsed": "0xd2a4d0",
      "logs": [
        {
          "address": "0x000000000022d473030f116ddee9f6b43ac78ba3",
          "topics": [
            "0xda9fa7c1b00402c17d0161b249b1ab8bbec047c5a52207b9c112deffd817036b",
            "0x000000000000000000000000f30180b9cec36f5a3762332c0f102fe8c024d64e",
            "0x0000000000000000000000002170d1ec7b1392611323a4c1793e580349cc5cc0",
            "0x000000000000000000000000429ba70129df741b2ca2a85bc3a2a3328e5c09b4"
          ],
          "data": "0x000000000000000000000000ffffffffffffffffffffffffffffffffffffffff0000000000000000000000000000000000000000000000000000ffffffffffff",
          "blockHash": "0x32bdf18db19aad26a396747acfd89e264217bac4dcd79359d629f533cadf5de8",
          "blockNumber": "0x9facba",
          "blockTimestamp": "0x69b96ef8",
          "transactionHash": "0x19f47fde56958f56e9f4211673d5c9043a4c62a83d7794eca3997879073ba179",
          "transactionIndex": "0x6c",
          "logIndex": "0x128",
          "removed": false
        }
      ],
      "logsBloom": "0x00010000000000000000000000000000000000000000000000000000000000000000000000000040880000000000004000000000000000000000000000080000000000000000000000000000000000000000000000000000000000000000000000000000000000000000000000000000000000000000000000000800000100000020000000000000000000000040000000000000000000000000000000000000000000000000000000000000000000000000000000000000000000080000000000008000000000000000000000020000000000000000000040000000000000000000000000000000000000000000000000000000000000000000000000000400",
      "type": "0x2",
      "transactionHash": "0x19f47fde56958f56e9f4211673d5c9043a4c62a83d7794eca3997879073ba179",
      "transactionIndex": "0x6c",
      "blockHash": "0x32bdf18db19aad26a396747acfd89e264217bac4dcd79359d629f533cadf5de8",
      "blockNumber": "0x9facba",
      "gasUsed": "0x6d0e",
      "effectiveGasPrice": "0xf424a",
      "from": "0xf30180b9cec36f5a3762332c0f102fe8c024d64e",
      "to": "0x000000000022d473030f116ddee9f6b43ac78ba3",
      "contractAddress": null
    },
    {
      "status": "0x1",
      "cumulativeGasUsed": "0xd311de",
      "logs": [
        {
          "address": "0x000000000022d473030f116ddee9f6b43ac78ba3",
          "topics": [
            "0xda9fa7c1b00402c17d0161b249b1ab8bbec047c5a52207b9c112deffd817036b",
            "0x000000000000000000000000f30180b9cec36f5a3762332c0f102fe8c024d64e",
            "0x00000000000000000000000058c414bd85bf1d39985476dfa5fbd59af356e8f0",
            "0x000000000000000000000000429ba70129df741b2ca2a85bc3a2a3328e5c09b4"
          ],
          "data": "0x000000000000000000000000ffffffffffffffffffffffffffffffffffffffff0000000000000000000000000000000000000000000000000000ffffffffffff",
          "blockHash": "0x32bdf18db19aad26a396747acfd89e264217bac4dcd79359d629f533cadf5de8",
          "blockNumber": "0x9facba",
          "blockTimestamp": "0x69b96ef8",
          "transactionHash": "0x38c4d2f26c309e6ac4a6ab2e78b0a17c91a475a54038f6834c5675cdda49ca4d",
          "transactionIndex": "0x6d",
          "logIndex": "0x129",
          "removed": false
        }
      ],
      "logsBloom": "0x00010000000000000000000000000000002000000000000000000000000000000000000000000040080000000000004080000000000000000000000000080000000000000000000000000000000000000000000000000000000000000000000000000000000000000000000000000000000000000000000000000800000000000020000000000000000000000040000000000000000000000000000000000000000000000000000000000000000000004000000000000000000000080000000000008000000000000000000000000000000000000000000040000000000000000000000000000000000000000000000000000000000000000000000000000400",
      "type": "0x2",
      "transactionHash": "0x38c4d2f26c309e6ac4a6ab2e78b0a17c91a475a54038f6834c5675cdda49ca4d",
      "transactionIndex": "0x6d",
      "blockHash": "0x32bdf18db19aad26a396747acfd89e264217bac4dcd79359d629f533cadf5de8",
      "blockNumber": "0x9facba",
      "gasUsed": "0x6d0e",
      "effectiveGasPrice": "0xf424a",
      "from": "0xf30180b9cec36f5a3762332c0f102fe8c024d64e",
      "to": "0x000000000022d473030f116ddee9f6b43ac78ba3",
      "contractAddress": null
    },
    {
      "status": "0x1",
      "cumulativeGasUsed": "0xd9c163",
      "logs": [
        {
          "address": "0xe03a1074c86cfedd5c142c4f04f1a1536e203543",
          "topics": [
            "0xdd466e674ea557f56295e2d0218a125ea4b4f0f6f3307b95f85e6110838d6438",
            "0x108bd10edacc12795a6055ee83cb79073fe747f0f7718c7302e98b26e8655029",
            "0x0000000000000000000000002170d1ec7b1392611323a4c1793e580349cc5cc0",
            "0x00000000000000000000000058c414bd85bf1d39985476dfa5fbd59af356e8f0"
          ],
          "data": "0x0000000000000000000000000000000000000000000000000000000000800000000000000000000000000000000000000000000000000000000000000000000a000000000000000000000000d3ad90041576954255d8fa1325774b90e501c0c000000000000000000000000000000000000000010000000000000000000000000000000000000000000000000000000000000000000000000000000000000000",
          "blockHash": "0x32bdf18db19aad26a396747acfd89e264217bac4dcd79359d629f533cadf5de8",
          "blockNumber": "0x9facba",
          "blockTimestamp": "0x69b96ef8",
          "transactionHash": "0xe1febda5067e9cfcc4254bf9deaff117fcdb21763bafb960cc744c8e290e0ba9",
          "transactionIndex": "0x6e",
          "logIndex": "0x12a",
          "removed": false
        },
        {
          "address": "0x429ba70129df741b2ca2a85bc3a2a3328e5c09b4",
          "topics": [
            "0xddf252ad1be2c89b69c2b068fc378daa952ba7f163c4a11628f55a4df523b3ef",
            "0x0000000000000000000000000000000000000000000000000000000000000000",
            "0x000000000000000000000000f30180b9cec36f5a3762332c0f102fe8c024d64e",
            "0x000000000000000000000000000000000000000000000000000000000000610c"
          ],
          "data": "0x",
          "blockHash": "0x32bdf18db19aad26a396747acfd89e264217bac4dcd79359d629f533cadf5de8",
          "blockNumber": "0x9facba",
          "blockTimestamp": "0x69b96ef8",
          "transactionHash": "0xe1febda5067e9cfcc4254bf9deaff117fcdb21763bafb960cc744c8e290e0ba9",
          "transactionIndex": "0x6e",
          "logIndex": "0x12b",
          "removed": false
        },
        {
          "address": "0xe03a1074c86cfedd5c142c4f04f1a1536e203543",
          "topics": [
            "0xf208f4912782fd25c7f114ca3723a2d5dd6f3bcc3ac8db5af63baa85f711d5ec",
            "0x108bd10edacc12795a6055ee83cb79073fe747f0f7718c7302e98b26e8655029",
            "0x000000000000000000000000429ba70129df741b2ca2a85bc3a2a3328e5c09b4"
          ],
          "data": "0xfffffffffffffffffffffffffffffffffffffffffffffffffffffffffffffc1800000000000000000000000000000000000000000000000000000000000003e8000000000000000000000000000000000000000000000000000001dd6c50ad7a000000000000000000000000000000000000000000000000000000000000610c",
          "blockHash": "0x32bdf18db19aad26a396747acfd89e264217bac4dcd79359d629f533cadf5de8",
          "blockNumber": "0x9facba",
          "blockTimestamp": "0x69b96ef8",
          "transactionHash": "0xe1febda5067e9cfcc4254bf9deaff117fcdb21763bafb960cc744c8e290e0ba9",
          "transactionIndex": "0x6e",
          "logIndex": "0x12c",
          "removed": false
        },
        {
          "address": "0x2170d1ec7b1392611323a4c1793e580349cc5cc0",
          "topics": [
            "0xddf252ad1be2c89b69c2b068fc378daa952ba7f163c4a11628f55a4df523b3ef",
            "0x000000000000000000000000f30180b9cec36f5a3762332c0f102fe8c024d64e",
            "0x000000000000000000000000e03a1074c86cfedd5c142c4f04f1a1536e203543"
          ],
          "data": "0x000000000000000000000000000000000000000000000000000000174876e800",
          "blockHash": "0x32bdf18db19aad26a396747acfd89e264217bac4dcd79359d629f533cadf5de8",
          "blockNumber": "0x9facba",
          "blockTimestamp": "0x69b96ef8",
          "transactionHash": "0xe1febda5067e9cfcc4254bf9deaff117fcdb21763bafb960cc744c8e290e0ba9",
          "transactionIndex": "0x6e",
          "logIndex": "0x12d",
          "removed": false
        },
        {
          "address": "0x58c414bd85bf1d39985476dfa5fbd59af356e8f0",
          "topics": [
            "0xddf252ad1be2c89b69c2b068fc378daa952ba7f163c4a11628f55a4df523b3ef",
            "0x000000000000000000000000f30180b9cec36f5a3762332c0f102fe8c024d64e",
            "0x000000000000000000000000e03a1074c86cfedd5c142c4f04f1a1536e203543"
          ],
          "data": "0x000000000000000000000000000000000000000000000000000000174876e800",
          "blockHash": "0x32bdf18db19aad26a396747acfd89e264217bac4dcd79359d629f533cadf5de8",
          "blockNumber": "0x9facba",
          "blockTimestamp": "0x69b96ef8",
          "transactionHash": "0xe1febda5067e9cfcc4254bf9deaff117fcdb21763bafb960cc744c8e290e0ba9",
          "transactionIndex": "0x6e",
          "logIndex": "0x12e",
          "removed": false
        }
      ],
      "logsBloom": "0x00020000000000000000001000000000002000000000000000001000080000010000000000000040880000000000004080000100000000000000100000000000000000000000000000000008000000000000000000000000000000000000000000008000020000000000000080000800000000000000100000000810001100000000000001000008000010000040000000000081000000000000000000200000000004000040000000000000000000004000002000400000000000000000000000008002000000000000000000020000000010000000008000001000000020001000800000000000000000000000000004000000000000000000000000000000",
      "type": "0x2",
      "transactionHash": "0xe1febda5067e9cfcc4254bf9deaff117fcdb21763bafb960cc744c8e290e0ba9",
      "transactionIndex": "0x6e",
      "blockHash": "0x32bdf18db19aad26a396747acfd89e264217bac4dcd79359d629f533cadf5de8",
      "blockNumber": "0x9facba",
      "gasUsed": "0x6af85",
      "effectiveGasPrice": "0xf424a",
      "from": "0xf30180b9cec36f5a3762332c0f102fe8c024d64e",
      "to": "0x429ba70129df741b2ca2a85bc3a2a3328e5c09b4",
      "contractAddress": null
    }
  ],
  "libraries": [],
  "pending": [],
  "returns": {},
  "timestamp": 1773760248637,
  "chain": 11155111,
  "commit": "4b882ed"
}