{
  "transactions": [
    {
      "hash": "0x204fec39a2d43fa03032a809900e62f552eaae0c15a89053143bc02497d89c5d",
      "transactionType": "CALL",
      "contractName": "MockStablecoin",
      "contractAddress": "0x58c414bd85bf1d39985476dfa5fbd59af356e8f0",
      "function": "mint(address,uint256)",
      "arguments": [
        "0xF30180b9CeC36f5a3762332c0f102Fe8C024D64e",
        "101000000000"
      ],
      "transaction": {
        "from": "0xf30180b9cec36f5a3762332c0f102fe8c024d64e",
        "to": "0x58c414bd85bf1d39985476dfa5fbd59af356e8f0",
        "gas": "0xc57e",
        "value": "0x0",
        "input": "0x40c10f19000000000000000000000000f30180b9cec36f5a3762332c0f102fe8c024d64e000000000000000000000000000000000000000000000000000000178411b200",
        "nonce": "0x80",
        "chainId": "0xaa36a7"
      },
      "additionalContracts": [],
      "isFixedGasLimit": false
    },
    {
      "hash": "0xb9f0c6fce398eee7a10e84b32d75528ec0ddf2424287338d612c4514185dad2e",
      "transactionType": "CALL",
      "contractName": "MockStablecoin",
      "contractAddress": "0x2170d1ec7b1392611323a4c1793e580349cc5cc0",
      "function": "mint(address,uint256)",
      "arguments": [
        "0xF30180b9CeC36f5a3762332c0f102Fe8C024D64e",
        "101000000000"
      ],
      "transaction": {
        "from": "0xf30180b9cec36f5a3762332c0f102fe8c024d64e",
        "to": "0x2170d1ec7b1392611323a4c1793e580349cc5cc0",
        "gas": "0xc57e",
        "value": "0x0",
        "input": "0x40c10f19000000000000000000000000f30180b9cec36f5a3762332c0f102fe8c024d64e000000000000000000000000000000000000000000000000000000178411b200",
        "nonce": "0x81",
        "chainId": "0xaa36a7"
      },
      "additionalContracts": [],
      "isFixedGasLimit": false
    },
    {
      "hash": "0x1e824ce1198eed6b18949e1abaa5089d6aace429e89880b1a102c42c2f4af1f7",
      "transactionType": "CALL",
      "contractName": "MockStablecoin",
      "contractAddress": "0x2170d1ec7b1392611323a4c1793e580349cc5cc0",
      "function": "approve(address,uint256)",
      "arguments": [
        "0x000000000022D473030F116dDEE9F6B43aC78BA3",
        "115792089237316195423570985008687907853269984665640564039457584007913129639935"
      ],
      "transaction": {
        "from": "0xf30180b9cec36f5a3762332c0f102fe8c024d64e",
        "to": "0x2170d1ec7b1392611323a4c1793e580349cc5cc0",
        "gas": "0x9202",
        "value": "0x0",
        "input": "0x095ea7b3000000000000000000000000000000000022d473030f116ddee9f6b43ac78ba3ffffffffffffffffffffffffffffffffffffffffffffffffffffffffffffffff",
        "nonce": "0x82",
        "chainId": "0xaa36a7"
      },
      "additionalContracts": [],
      "isFixedGasLimit": false
    },
    {
      "hash": "0x42a45e97e62e036e5e45191462e2af1de8a1cf00b81159ce0fc6b64c3acee813",
      "transactionType": "CALL",
      "contractName": "MockStablecoin",
      "contractAddress": "0x58c414bd85bf1d39985476dfa5fbd59af356e8f0",
      "function": "approve(address,uint256)",
      "arguments": [
        "0x000000000022D473030F116dDEE9F6B43aC78BA3",
        "115792089237316195423570985008687907853269984665640564039457584007913129639935"
      ],
      "transaction": {
        "from": "0xf30180b9cec36f5a3762332c0f102fe8c024d64e",
        "to": "0x58c414bd85bf1d39985476dfa5fbd59af356e8f0",
        "gas": "0x9202",
        "value": "0x0",
        "input": "0x095ea7b3000000000000000000000000000000000022d473030f116ddee9f6b43ac78ba3ffffffffffffffffffffffffffffffffffffffffffffffffffffffffffffffff",
        "nonce": "0x83",
        "chainId": "0xaa36a7"
      },
      "additionalContracts": [],
      "isFixedGasLimit": false
    },
    {
      "hash": "0x3088c3abbaceda5ac82f081106ff803181cd13d39a9344cb1b2a13c2446c63f4",
      "transactionType": "CALL",
      "contractName": null,
      "contractAddress": "0x000000000022d473030f116ddee9f6b43ac78ba3",
      "function": "approve(address,address,uint160,uint48)",
      "arguments": [
        "0x2170d1eC7B1392611323A4c1793e580349CC5CC0",
        "0x429ba70129df741B2Ca2a85BC3A2a3328e5c09b4",
        "1461501637330902918203684832716283019655932542975",
        "281474976710655"
      ],
      "transaction": {
        "from": "0xf30180b9cec36f5a3762332c0f102fe8c024d64e",
        "to": "0x000000000022d473030f116ddee9f6b43ac78ba3",
        "gas": "0x96a0",
        "value": "0x0",
        "input": "0x87517c450000000000000000000000002170d1ec7b1392611323a4c1793e580349cc5cc0000000000000000000000000429ba70129df741b2ca2a85bc3a2a3328e5c09b4000000000000000000000000ffffffffffffffffffffffffffffffffffffffff0000000000000000000000000000000000000000000000000000ffffffffffff",
        "nonce": "0x84",
        "chainId": "0xaa36a7"
      },
      "additionalContracts": [],
      "isFixedGasLimit": false
    },
    {
      "hash": "0x00413fd30c480fc7c32fb523791e8e3b79927b6f0b148116dff8ed5183595d51",
      "transactionType": "CALL",
      "contractName": null,
      "contractAddress": "0x000000000022d473030f116ddee9f6b43ac78ba3",
      "function": "approve(address,address,uint160,uint48)",
      "arguments": [
        "0x58C414Bd85bf1d39985476Dfa5fBd59af356E8f0",
        "0x429ba70129df741B2Ca2a85BC3A2a3328e5c09b4",
        "1461501637330902918203684832716283019655932542975",
        "281474976710655"
      ],
      "transaction": {
        "from": "0xf30180b9cec36f5a3762332c0f102fe8c024d64e",
        "to": "0x000000000022d473030f116ddee9f6b43ac78ba3",
        "gas": "0x96a0",
        "value": "0x0",
        "input": "0x87517c4500000000000000000000000058c414bd85bf1d39985476dfa5fbd59af356e8f0000000000000000000000000429ba70129df741b2ca2a85bc3a2a3328e5c09b4000000000000000000000000ffffffffffffffffffffffffffffffffffffffff0000000000000000000000000000000000000000000000000000ffffffffffff",
        "nonce": "0x85",
        "chainId": "0xaa36a7"
      },
      "additionalContracts": [],
      "isFixedGasLimit": false
    },
    {
      "hash": "0x1d89b0380b9b683355ec10417997ce3c7231382747dd5412d814f2cfc93be4f4",
      "transactionType": "CALL",
      "contractName": null,
      "contractAddress": "0x429ba70129df741b2ca2a85bc3a2a3328e5c09b4",
      "function": "multicall(bytes[])",
      "arguments": [
        "[0xf70204050000000000000000000000002170d1ec7b1392611323a4c1793e580349cc5cc000000000000000000000000058c414bd85bf1d39985476dfa5fbd59af356e8f00000000000000000000000000000000000000000000000000000000000800000000000000000000000000000000000000000000000000000000000000000000a000000000000000000000000edffdabadd4263836403bf0d5f92a613fc9f00c0000000000000000000000000000000000000000100000000000000000000000000000000000000000000000000000000000000000000000000000000000000e00000000000000000000000000000000000000000000000000000000000000000, 0xdd46508f00000000000000000000000000000000000000000000000000000000000000400000000000000000000000000000000000000000000000000000000069ba4aac0000000000000000000000000000000000000000000000000000000000000400000000000000000000000000000000000000000000000000000000000000004000000000000000000000000000000000000000000000000000000000000000800000000000000000000000000000000000000000000000000000000000000004020d14140000000000000000000000000000000000000000000000000000000000000000000000000000000000000000000000000000000000000000000000040000000000000000000000000000000000000000000000000000000000000080000000000000000000000000000000000000000000000000000000000000024000000000000000000000000000000000000000000000000000000000000002a0000000000000000000000000000000000000000000000000000000000000030000000000000000000000000000000000000000000000000000000000000001a00000000000000000000000002170d1ec7b1392611323a4c1793e580349cc5cc000000000000000000000000058c414bd85bf1d39985476dfa5fbd59af356e8f00000000000000000000000000000000000000000000000000000000000800000000000000000000000000000000000000000000000000000000000000000000a000000000000000000000000edffdabadd4263836403bf0d5f92a613fc9f00c0fffffffffffffffffffffffffffffffffffffffffffffffffffffffffffffc1800000000000000000000000000000000000000000000000000000000000003e8000000000000000000000000000000000000000000000000000001dd6c50ad7a000000000000000000000000000000000000000000000000000000174876e801000000000000000000000000000000000000000000000000000000174876e801000000000000000000000000f30180b9cec36f5a3762332c0f102fe8c024d64e0000000000000000000000000000000000000000000000000000000000000180000000000000000000000000000000000000000000000000000000000000000000000000000000000000000000000000000000000000000000000000000000400000000000000000000000002170d1ec7b1392611323a4c1793e580349cc5cc000000000000000000000000058c414bd85bf1d39985476dfa5fbd59af356e8f000000000000000000000000000000000000000000000000000000000000000400000000000000000000000002170d1ec7b1392611323a4c1793e580349cc5cc0000000000000000000000000f30180b9cec36f5a3762332c0f102fe8c024d64e000000000000000000000000000000000000000000000000000000000000004000000000000000000000000058c414bd85bf1d39985476dfa5fbd59af356e8f0000000000000000000000000f30180b9cec36f5a3762332c0f102fe8c024d64e]"
      ],
      "transaction": {
        "from": "0xf30180b9cec36f5a3762332c0f102fe8c024d64e",
        "to": "0x429ba70129df741b2ca2a85bc3a2a3328e5c09b4",
        "gas": "0x93be7",
        "value": "0x0",
        "input": "0xac9650d800000000000000000000000000000000000000000000000000000000000000200000000000000000000000000000000000000000000000000000000000000002000000000000000000000000000000000000000000000000000000000000004000000000000000000000000000000000000000000000000000000000000001800000000000000000000000000000000000000000000000000000000000000104f70204050000000000000000000000002170d1ec7b1392611323a4c1793e580349cc5cc000000000000000000000000058c414bd85bf1d39985476dfa5fbd59af356e8f00000000000000000000000000000000000000000000000000000000000800000000000000000000000000000000000000000000000000000000000000000000a000000000000000000000000edffdabadd4263836403bf0d5f92a613fc9f00c0000000000000000000000000000000000000000100000000000000000000000000000000000000000000000000000000000000000000000000000000000000e00000000000000000000000000000000000000000000000000000000000000000000000000000000000000000000000000000000000000000000000000000000000000000000000000000000000000000000000000000000000000464dd46508f00000000000000000000000000000000000000000000000000000000000000400000000000000000000000000000000000000000000000000000000069ba4aac0000000000000000000000000000000000000000000000000000000000000400000000000000000000000000000000000000000000000000000000000000004000000000000000000000000000000000000000000000000000000000000000800000000000000000000000000000000000000000000000000000000000000004020d14140000000000000000000000000000000000000000000000000000000000000000000000000000000000000000000000000000000000000000000000040000000000000000000000000000000000000000000000000000000000000080000000000000000000000000000000000000000000000000000000000000024000000000000000000000000000000000000000000000000000000000000002a0000000000000000000000000000000000000000000000000000000000000030000000000000000000000000000000000000000000000000000000000000001a00000000000000000000000002170d1ec7b1392611323a4c1793e580349cc5cc000000000000000000000000058c414bd85bf1d39985476dfa5fbd59af356e8f00000000000000000000000000000000000000000000000000000000000800000000000000000000000000000000000000000000000000000000000000000000a000000000000000000000000edffdabadd4263836403bf0d5f92a613fc9f00c0fffffffffffffffffffffffffffffffffffffffffffffffffffffffffffffc1800000000000000000000000000000000000000000000000000000000000003e8000000000000000000000000000000000000000000000000000001dd6c50ad7a000000000000000000000000000000000000000000000000000000174876e801000000000000000000000000000000000000000000000000000000174876e801000000000000000000000000f30180b9cec36f5a3762332c0f102fe8c024d64e0000000000000000000000000000000000000000000000000000000000000180000000000000000000000000000000000000000000000000000000000000000000000000000000000000000000000000000000000000000000000000000000400000000000000000000000002170d1ec7b1392611323a4c1793e580349cc5cc000000000000000000000000058c414bd85bf1d39985476dfa5fbd59af356e8f000000000000000000000000000000000000000000000000000000000000000400000000000000000000000002170d1ec7b1392611323a4c1793e580349cc5cc0000000000000000000000000f30180b9cec36f5a3762332c0f102fe8c024d64e000000000000000000000000000000000000000000000000000000000000004000000000000000000000000058c414bd85bf1d39985476dfa5fbd59af356e8f0000000000000000000000000f30180b9cec36f5a3762332c0f102fe8c024d64e00000000000000000000000000000000000000000000000000000000",
        "nonce": "0x86",
        "chainId": "0xaa36a7"
      },
      "additionalContracts": [],
      "isFixedGasLimit": false
    }
  ],
  "receipts": [
    {
      "status": "0x1",
      "cumulativeGasUsed": "0x7c969d",
      "logs": [
        {
          "address": "0x58c414bd85bf1d39985476dfa5fbd59af356e8f0",
          "topics": [
            "0xddf252ad1be2c89b69c2b068fc378daa952ba7f163c4a11628f55a4df523b3ef",
            "0x0000000000000000000000000000000000000000000000000000000000000000",
            "0x000000000000000000000000f30180b9cec36f5a3762332c0f102fe8c024d64e"
          ],
          "data": "0x000000000000000000000000000000000000000000000000000000178411b200",
          "blockHash": "0x2f307de633bd6779f8e3adfbe8468cbfb5cdfa2d99d0241bdd916b97b679bbcc",
          "blockNumber": "0x9fbb66",
          "blockTimestamp": "0x69ba3cc0",
          "transactionHash": "0x42a45e97e62e036e5e45191462e2af1de8a1cf00b81159ce0fc6b64c3acee813",
          "transactionIndex": "0x4b",
          "logIndex": "0x96",
          "removed": false
        }
      ],
      "logsBloom": "0x00000000000000000000000000000000000000000000000000000000000000000000000000000000000000000000004000000000000000000000000000000000000000000000000000000008000000000000000000000000000000000000000000000000020000000000000000000800000000000000000000000010000000000000000000000000000000000040000000000000000000000000000000000000000000000040000000000000000000000000002000000000000000000000000000008002000000000000000000000000000000000000000000000000000020000000800000000000000000000000000000000000000000000000000000000000",
      "type": "0x2",
      "transactionHash": "0x42a45e97e62e036e5e45191462e2af1de8a1cf00b81159ce0fc6b64c3acee813",
      "transactionIndex": "0x4b",
      "blockHash": "0x2f307de633bd6779f8e3adfbe8468cbfb5cdfa2d99d0241bdd916b97b679bbcc",
      "blockNumber": "0x9fbb66",
      "gasUsed": "0x870a",
      "effectiveGasPrice": "0xf4249",
      "from": "0xf30180b9cec36f5a3762332c0f102fe8c024d64e",
      "to": "0x58c414bd85bf1d39985476dfa5fbd59af356e8f0",
      "contractAddress": null
    },
    {
      "status": "0x1",
      "cumulativeGasUsed": "0x7d1da7",
      "logs": [
        {
          "address": "0x2170d1ec7b1392611323a4c1793e580349cc5cc0",
          "topics": [
            "0xddf252ad1be2c89b69c2b068fc378daa952ba7f163c4a11628f55a4df523b3ef",
            "0x0000000000000000000000000000000000000000000000000000000000000000",
            "0x000000000000000000000000f30180b9cec36f5a3762332c0f102fe8c024d64e"
          ],
          "data": "0x000000000000000000000000000000000000000000000000000000178411b200",
          "blockHash": "0x2f307de633bd6779f8e3adfbe8468cbfb5cdfa2d99d0241bdd916b97b679bbcc",
          "blockNumber": "0x9fbb66",
          "blockTimestamp": "0x69ba3cc0",
          "transactionHash": "0x1e824ce1198eed6b18949e1abaa5089d6aace429e89880b1a102c42c2f4af1f7",
          "transactionIndex": "0x4c",
          "logIndex": "0x97",
          "removed": false
        }
      ],
      "logsBloom": "0x00000000000000000000000000000000000000000000000000001000000000010000000000000000000000000000004000000000000000000000000000000000000000000000000000000008000000000000000000000000000000000000000000000000020000000000000000000800000000000000000000000010000000000000000000000000000000000040000000000080000000000000000000000000000000000000000000000000000000000000000000000000000000000000000000008002000000000000000000000000000000000000000000000000000020000000000000000000000000000000000000000000000000000000000000000000",
      "type": "0x2",
      "transactionHash": "0x1e824ce1198eed6b18949e1abaa5089d6aace429e89880b1a102c42c2f4af1f7",
      "transactionIndex": "0x4c",
      "blockHash": "0x2f307de633bd6779f8e3adfbe8468cbfb5cdfa2d99d0241bdd916b97b679bbcc",
      "blockNumber": "0x9fbb66",
      "gasUsed": "0x870a",
      "effectiveGasPrice": "0xf4249",
      "from": "0xf30180b9cec36f5a3762332c0f102fe8c024d64e",
      "to": "0x2170d1ec7b1392611323a4c1793e580349cc5cc0",
      "contractAddress": null
    },
    {
      "status": "0x1",
      "cumulativeGasUsed": "0x7d875d",
      "logs": [
        {
          "address": "0x2170d1ec7b1392611323a4c1793e580349cc5cc0",
          "topics": [
            "0x8c5be1e5ebec7d5bd14f71427d1e84f3dd0314c0f7b2291e5b200ac8c7c3b925",
            "0x000000000000000000000000f30180b9cec36f5a3762332c0f102fe8c024d64e",
            "0x000000000000000000000000000000000022d473030f116ddee9f6b43ac78ba3"
          ],
          "data": "0xffffffffffffffffffffffffffffffffffffffffffffffffffffffffffffffff",
          "blockHash": "0x2f307de633bd6779f8e3adfbe8468cbfb5cdfa2d99d0241bdd916b97b679bbcc",
          "blockNumber": "0x9fbb66",
          "blockTimestamp": "0x69ba3cc0",
          "transactionHash": "0x204fec39a2d43fa03032a809900e62f552eaae0c15a89053143bc02497d89c5d",
          "transactionIndex": "0x4d",
          "logIndex": "0x98",
          "removed": false
        }
      ],
      "logsBloom": "0x00000000000000000000000000000000000000000000000000001000000000010000000000000000000000000000004000000000800000000000000000200000000000000000000000004000000000000000000000000800000000000000000000000000000000000000000000000000000000000000000000000000000000000000000000000000000000000040000000000080000000000000000000000000020000000000000000000000000000000000000000000000000000000000000000008000000000000000000000000000000000000000000000000000000000000010000000000000000000000000000000000000000000000000000000000000",
      "type": "0x2",
      "transactionHash": "0x204fec39a2d43fa03032a809900e62f552eaae0c15a89053143bc02497d89c5d",
      "transactionIndex": "0x4d",
      "blockHash": "0x2f307de633bd6779f8e3adfbe8468cbfb5cdfa2d99d0241bdd916b97b679bbcc",
      "blockNumber": "0x9fbb66",
      "gasUsed": "0x69b6",
      "effectiveGasPrice": "0xf4249",
      "from": "0xf30180b9cec36f5a3762332c0f102fe8c024d64e",
      "to": "0x2170d1ec7b1392611323a4c1793e580349cc5cc0",
      "contractAddress": null
    },
    {
      "status": "0x1",
      "cumulativeGasUsed": "0x7df113",
      "logs": [
        {
          "address": "0x58c414bd85bf1d39985476dfa5fbd59af356e8f0",
          "topics": [
            "0x8c5be1e5ebec7d5bd14f71427d1e84f3dd0314c0f7b2291e5b200ac8c7c3b925",
            "0x000000000000000000000000f30180b9cec36f5a3762332c0f102fe8c024d64e",
            "0x000000000000000000000000000000000022d473030f116ddee9f6b43ac78ba3"
          ],
          "data": "0xffffffffffffffffffffffffffffffffffffffffffffffffffffffffffffffff",
          "blockHash": "0x2f307de633bd6779f8e3adfbe8468cbfb5cdfa2d99d0241bdd916b97b679bbcc",
          "blockNumber": "0x9fbb66",
          "blockTimestamp": "0x69ba3cc0",
          "transactionHash": "0x1d89b0380b9b683355ec10417997ce3c7231382747dd5412d814f2cfc93be4f4",
          "transactionIndex": "0x4e",
          "logIndex": "0x99",
          "removed": false
        }
      ],
      "logsBloom": "0x00000000000000000000000000000000000000000000000000000000000000000000000000000000000000000000004000000000800000000000000000200000000000000000000000004000000000000000000000000800000000000000000000000000000000000000000000000000000000000000000000000000000000000000000000000000000000000040000000000000000000000000000000000000020000000040000000000000000000000000002000000000000000000000000000008000000000000000000000000000000000000000000000000000000000000010800000000000000000000000000000000000000000000000000000000000",
      "type": "0x2",
      "transactionHash": "0x1d89b0380b9b683355ec10417997ce3c7231382747dd5412d814f2cfc93be4f4",
      "transactionIndex": "0x4e",
      "blockHash": "0x2f307de633bd6779f8e3adfbe8468cbfb5cdfa2d99d0241bdd916b97b679bbcc",
      "blockNumber": "0x9fbb66",
      "gasUsed": "0x69b6",
      "effectiveGasPrice": "0xf4249",
      "from": "0xf30180b9cec36f5a3762332c0f102fe8c024d64e",
      "to": "0x58c414bd85bf1d39985476dfa5fbd59af356e8f0",
      "contractAddress": null
    },
    {
      "status": "0x1",
      "cumulativeGasUsed": "0x7e5e21",
      "logs": [
        {
          "address": "0x000000000022d473030f116ddee9f6b43ac78ba3",
          "topics": [
            "0xda9fa7c1b00402c17d0161b249b1ab8bbec047c5a52207b9c112deffd817036b",
            "0x000000000000000000000000f30180b9cec36f5a3762332c0f102fe8c024d64e",
            "0x0000000000000000000000002170d1ec7b1392611323a4c1793e580349cc5cc0",
            "0x000000000000000000000000429ba70129df741b2ca2a85bc3a2a3328e5c09b4"
          ],
          "data": "0x000000000000000000000000ffffffffffffffffffffffffffffffffffffffff0000000000000000000000000000000000000000000000000000ffffffffffff",
          "blockHash": "0x2f307de633bd6779f8e3adfbe8468cbfb5cdfa2d99d0241bdd916b97b679bbcc",
          "blockNumber": "0x9fbb66",
          "blockTimestamp": "0x69ba3cc0",
          "transactionHash": "0xb9f0c6fce398eee7a10e84b32d75528ec0ddf2424287338d612c4514185dad2e",
          "transactionIndex": "0x4f",
          "logIndex": "0x9a",
          "removed": false
        }
      ],
      "logsBloom": "0x00010000000000000000000000000000000000000000000000000000000000000000000000000040880000000000004000000000000000000000000000080000000000000000000000000000000000000000000000000000000000000000000000000000000000000000000000000000000000000000000000000800000100000020000000000000000000000040000000000000000000000000000000000000000000000000000000000000000000000000000000000000000000080000000000008000000000000000000000020000000000000000000040000000000000000000000000000000000000000000000000000000000000000000000000000400",
      "type": "0x2",
      "transactionHash": "0xb9f0c6fce398eee7a10e84b32d75528ec0ddf2424287338d612c4514185dad2e",
      "transactionIndex": "0x4f",
      "blockHash": "0x2f307de633bd6779f8e3adfbe8468cbfb5cdfa2d99d0241bdd916b97b679bbcc",
      "blockNumber": "0x9fbb66",
      "gasUsed": "0x6d0e",
      "effectiveGasPrice": "0xf4249",
      "from": "0xf30180b9cec36f5a3762332c0f102fe8c024d64e",
      "to": "0x000000000022d473030f116ddee9f6b43ac78ba3",
      "contractAddress": null
    },
    {
      "status": "0x1",
      "cumulativeGasUsed": "0x7ecb2f",
      "logs": [
        {
          "address": "0x000000000022d473030f116ddee9f6b43ac78ba3",
          "topics": [
            "0xda9fa7c1b00402c17d0161b249b1ab8bbec047c5a52207b9c112deffd817036b",
            "0x000000000000000000000000f30180b9cec36f5a3762332c0f102fe8c024d64e",
            "0x00000000000000000000000058c414bd85bf1d39985476dfa5fbd59af356e8f0",
            "0x000000000000000000000000429ba70129df741b2ca2a85bc3a2a3328e5c09b4"
          ],
          "data": "0x000000000000000000000000ffffffffffffffffffffffffffffffffffffffff0000000000000000000000000000000000000000000000000000ffffffffffff",
          "blockHash": "0x2f307de633bd6779f8e3adfbe8468cbfb5cdfa2d99d0241bdd916b97b679bbcc",
          "blockNumber": "0x9fbb66",
          "blockTimestamp": "0x69ba3cc0",
          "transactionHash": "0x00413fd30c480fc7c32fb523791e8e3b79927b6f0b148116dff8ed5183595d51",
          "transactionIndex": "0x50",
          "logIndex": "0x9b",
          "removed": false
        }
      ],
      "logsBloom": "0x00010000000000000000000000000000002000000000000000000000000000000000000000000040080000000000004080000000000000000000000000080000000000000000000000000000000000000000000000000000000000000000000000000000000000000000000000000000000000000000000000000800000000000020000000000000000000000040000000000000000000000000000000000000000000000000000000000000000000004000000000000000000000080000000000008000000000000000000000000000000000000000000040000000000000000000000000000000000000000000000000000000000000000000000000000400",
      "type": "0x2",
      "transactionHash": "0x00413fd30c480fc7c32fb523791e8e3b79927b6f0b148116dff8ed5183595d51",
      "transactionIndex": "0x50",
      "blockHash": "0x2f307de633bd6779f8e3adfbe8468cbfb5cdfa2d99d0241bdd916b97b679bbcc",
      "blockNumber": "0x9fbb66",
      "gasUsed": "0x6d0e",
      "effectiveGasPrice": "0xf4249",
      "from": "0xf30180b9cec36f5a3762332c0f102fe8c024d64e",
      "to": "0x000000000022d473030f116ddee9f6b43ac78ba3",
      "contractAddress": null
    },
    {
      "status": "0x1",
      "cumulativeGasUsed": "0x857a9c",
      "logs": [
        {
          "address": "0xe03a1074c86cfedd5c142c4f04f1a1536e203543",
          "topics": [
            "0xdd466e674ea557f56295e2d0218a125ea4b4f0f6f3307b95f85e6110838d6438",
            "0xbc0c75c7f605631b306f1422bd419fcf72448f2eb5650a4950631082ac9e2e1d",
            "0x0000000000000000000000002170d1ec7b1392611323a4c1793e580349cc5cc0",
            "0x00000000000000000000000058c414bd85bf1d39985476dfa5fbd59af356e8f0"
          ],
          "data": "0x0000000000000000000000000000000000000000000000000000000000800000000000000000000000000000000000000000000000000000000000000000000a000000000000000000000000edffdabadd4263836403bf0d5f92a613fc9f00c000000000000000000000000000000000000000010000000000000000000000000000000000000000000000000000000000000000000000000000000000000000",
          "blockHash": "0x2f307de633bd6779f8e3adfbe8468cbfb5cdfa2d99d0241bdd916b97b679bbcc",
          "blockNumber": "0x9fbb66",
          "blockTimestamp": "0x69ba3cc0",
          "transactionHash": "0x3088c3abbaceda5ac82f081106ff803181cd13d39a9344cb1b2a13c2446c63f4",
          "transactionIndex": "0x51",
          "logIndex": "0x9c",
          "removed": false
        },
        {
          "address": "0x429ba70129df741b2ca2a85bc3a2a3328e5c09b4",
          "topics": [
            "0xddf252ad1be2c89b69c2b068fc378daa952ba7f163c4a11628f55a4df523b3ef",
            "0x0000000000000000000000000000000000000000000000000000000000000000",
            "0x000000000000000000000000f30180b9cec36f5a3762332c0f102fe8c024d64e",
            "0x0000000000000000000000000000000000000000000000000000000000006127"
          ],
          "data": "0x",
          "blockHash": "0x2f307de633bd6779f8e3adfbe8468cbfb5cdfa2d99d0241bdd916b97b679bbcc",
          "blockNumber": "0x9fbb66",
          "blockTimestamp": "0x69ba3cc0",
          "transactionHash": "0x3088c3abbaceda5ac82f081106ff803181cd13d39a9344cb1b2a13c2446c63f4",
          "transactionIndex": "0x51",
          "logIndex": "0x9d",
          "removed": false
        },
        {
          "address": "0xe03a1074c86cfedd5c142c4f04f1a1536e203543",
          "topics": [
            "0xf208f4912782fd25c7f114ca3723a2d5dd6f3bcc3ac8db5af63baa85f711d5ec",
            "0xbc0c75c7f605631b306f1422bd419fcf72448f2eb5650a4950631082ac9e2e1d",
            "0x000000000000000000000000429ba70129df741b2ca2a85bc3a2a3328e5c09b4"
          ],
          "data": "0xfffffffffffffffffffffffffffffffffffffffffffffffffffffffffffffc1800000000000000000000000000000000000000000000000000000000000003e8000000000000000000000000000000000000000000000000000001dd6c50ad7a0000000000000000000000000000000000000000000000000000000000006127",
          "blockHash": "0x2f307de633bd6779f8e3adfbe8468cbfb5cdfa2d99d0241bdd916b97b679bbcc",
          "blockNumber": "0x9fbb66",
          "blockTimestamp": "0x69ba3cc0",
          "transactionHash": "0x3088c3abbaceda5ac82f081106ff803181cd13d39a9344cb1b2a13c2446c63f4",
          "transactionIndex": "0x51",
          "logIndex": "0x9e",
          "removed": false
        },
        {
          "address": "0x2170d1ec7b1392611323a4c1793e580349cc5cc0",
          "topics": [
            "0xddf252ad1be2c89b69c2b068fc378daa952ba7f163c4a11628f55a4df523b3ef",
            "0x000000000000000000000000f30180b9cec36f5a3762332c0f102fe8c024d64e",
            "0x000000000000000000000000e03a1074c86cfedd5c142c4f04f1a1536e203543"
          ],
          "data": "0x000000000000000000000000000000000000000000000000000000174876e800",
          "blockHash": "0x2f307de633bd6779f8e3adfbe8468cbfb5cdfa2d99d0241bdd916b97b679bbcc",
          "blockNumber": "0x9fbb66",
          "blockTimestamp": "0x69ba3cc0",
          "transactionHash": "0x3088c3abbaceda5ac82f081106ff803181cd13d39a9344cb1b2a13c2446c63f4",
          "transactionIndex": "0x51",
          "logIndex": "0x9f",
          "removed": false
        },
        {
          "address": "0x58c414bd85bf1d39985476dfa5fbd59af356e8f0",
          "topics": [
            "0xddf252ad1be2c89b69c2b068fc378daa952ba7f163c4a11628f55a4df523b3ef",
            "0x000000000000000000000000f30180b9cec36f5a3762332c0f102fe8c024d64e",
            "0x000000000000000000000000e03a1074c86cfedd5c142c4f04f1a1536e203543"
          ],
          "data": "0x000000000000000000000000000000000000000000000000000000174876e800",
          "blockHash": "0x2f307de633bd6779f8e3adfbe8468cbfb5cdfa2d99d0241bdd916b97b679bbcc",
          "blockNumber": "0x9fbb66",
          "blockTimestamp": "0x69ba3cc0",
          "transactionHash": "0x3088c3abbaceda5ac82f081106ff803181cd13d39a9344cb1b2a13c2446c63f4",
          "transactionIndex": "0x51",
          "logIndex": "0xa0",
          "removed": false
        }
      ],
      "logsBloom": "0x00000000000000000000001000000000002000000000000000001000080000010000000000000040880000000000004080000100000000000000000000000000000000000000000000000008000000000000000000000000040001000000000000000000020000000000000080000800000000000000100000000810000100000000000001000008000010000040000000000081000000000000000000200000000004000040000000000000000000004000012000400000000000000000000000028082000000000000000000020000000000000000000000001000000020001000800000000000000000000000000024000000000000000000000000000000",
      "type": "0x2",
      "transactionHash": "0x3088c3abbaceda5ac82f081106ff803181cd13d39a9344cb1b2a13c2446c63f4",
      "transactionIndex": "0x51",
      "blockHash": "0x2f307de633bd6779f8e3adfbe8468cbfb5cdfa2d99d0241bdd916b97b679bbcc",
      "blockNumber": "0x9fbb66",
      "gasUsed": "0x6af6d",
      "effectiveGasPrice": "0xf4249",
      "from": "0xf30180b9cec36f5a3762332c0f102fe8c024d64e",
      "to": "0x429ba70129df741b2ca2a85bc3a2a3328e5c09b4",
      "contractAddress": null
    }
  ],
  "libraries": [],
  "pending": [],
  "returns": {},
  "timestamp": 1773812928453,
  "chain": 11155111,
  "commit": "13d7ddb"
}