{
  "transactions": [
    {
      "hash": "0x02ecbd725f3500908d637080045c83f664b539f699f63fd9c8055f24edf167f7",
      "transactionType": "CALL",
      "contractName": "MockStablecoin",
      "contractAddress": "0x58c414bd85bf1d39985476dfa5fbd59af356e8f0",
      "function": "mint(address,uint256)",
      "arguments": [
        "0xF30180b9CeC36f5a3762332c0f102Fe8C024D64e",
        "101000000000"
      ],
      "transaction": {
        "from": "0xf30180b9cec36f5a3762332c0f102fe8c024d64e",
        "to": "0x58c414bd85bf1d39985476dfa5fbd59af356e8f0",
        "gas": "0xc57e",
        "value": "0x0",
        "input": "0x40c10f19000000000000000000000000f30180b9cec36f5a3762332c0f102fe8c024d64e000000000000000000000000000000000000000000000000000000178411b200",
        "nonce": "0x72",
        "chainId": "0xaa36a7"
      },
      "additionalContracts": [],
      "isFixedGasLimit": false
    },
    {
      "hash": "0x70f3a296078df556ea3d9729c3e2fadd8bec737e66c36a5f97f50ae4d6ba0c39",
      "transactionType": "CALL",
      "contractName": "MockStablecoin",
      "contractAddress": "0x2170d1ec7b1392611323a4c1793e580349cc5cc0",
      "function": "mint(address,uint256)",
      "arguments": [
        "0xF30180b9CeC36f5a3762332c0f102Fe8C024D64e",
        "101000000000"
      ],
      "transaction": {
        "from": "0xf30180b9cec36f5a3762332c0f102fe8c024d64e",
        "to": "0x2170d1ec7b1392611323a4c1793e580349cc5cc0",
        "gas": "0xc57e",
        "value": "0x0",
        "input": "0x40c10f19000000000000000000000000f30180b9cec36f5a3762332c0f102fe8c024d64e000000000000000000000000000000000000000000000000000000178411b200",
        "nonce": "0x73",
        "chainId": "0xaa36a7"
      },
      "additionalContracts": [],
      "isFixedGasLimit": false
    },
    {
      "hash": "0x43403fcf464fce0c5750e6437d7eed8f7e62333b20841fccdaf135bb04131ec2",
      "transactionType": "CALL",
      "contractName": "MockStablecoin",
      "contractAddress": "0x2170d1ec7b1392611323a4c1793e580349cc5cc0",
      "function": "approve(address,uint256)",
      "arguments": [
        "0x000000000022D473030F116dDEE9F6B43aC78BA3",
        "115792089237316195423570985008687907853269984665640564039457584007913129639935"
      ],
      "transaction": {
        "from": "0xf30180b9cec36f5a3762332c0f102fe8c024d64e",
        "to": "0x2170d1ec7b1392611323a4c1793e580349cc5cc0",
        "gas": "0x9202",
        "value": "0x0",
        "input": "0x095ea7b3000000000000000000000000000000000022d473030f116ddee9f6b43ac78ba3ffffffffffffffffffffffffffffffffffffffffffffffffffffffffffffffff",
        "nonce": "0x74",
        "chainId": "0xaa36a7"
      },
      "additionalContracts": [],
      "isFixedGasLimit": false
    },
    {
      "hash": "0x409d24346529c6cffe5d672f4438e24b535c7c82ca1ddeb5a80db56c6e9c43b8",
      "transactionType": "CALL",
      "contractName": "MockStablecoin",
      "contractAddress": "0x58c414bd85bf1d39985476dfa5fbd59af356e8f0",
      "function": "approve(address,uint256)",
      "arguments": [
        "0x000000000022D473030F116dDEE9F6B43aC78BA3",
        "115792089237316195423570985008687907853269984665640564039457584007913129639935"
      ],
      "transaction": {
        "from": "0xf30180b9cec36f5a3762332c0f102fe8c024d64e",
        "to": "0x58c414bd85bf1d39985476dfa5fbd59af356e8f0",
        "gas": "0x9202",
        "value": "0x0",
        "input": "0x095ea7b3000000000000000000000000000000000022d473030f116ddee9f6b43ac78ba3ffffffffffffffffffffffffffffffffffffffffffffffffffffffffffffffff",
        "nonce": "0x75",
        "chainId": "0xaa36a7"
      },
      "additionalContracts": [],
      "isFixedGasLimit": false
    },
    {
      "hash": "0x657690c473f568b54af7b9d7678ab51eb2a0c385ee6a9baf12e4db20ad890071",
      "transactionType": "CALL",
      "contractName": null,
      "contractAddress": "0x000000000022d473030f116ddee9f6b43ac78ba3",
      "function": "approve(address,address,uint160,uint48)",
      "arguments": [
        "0x2170d1eC7B1392611323A4c1793e580349CC5CC0",
        "0x429ba70129df741B2Ca2a85BC3A2a3328e5c09b4",
        "1461501637330902918203684832716283019655932542975",
        "281474976710655"
      ],
      "transaction": {
        "from": "0xf30180b9cec36f5a3762332c0f102fe8c024d64e",
        "to": "0x000000000022d473030f116ddee9f6b43ac78ba3",
        "gas": "0x96a0",
        "value": "0x0",
        "input": "0x87517c450000000000000000000000002170d1ec7b1392611323a4c1793e580349cc5cc0000000000000000000000000429ba70129df741b2ca2a85bc3a2a3328e5c09b4000000000000000000000000ffffffffffffffffffffffffffffffffffffffff0000000000000000000000000000000000000000000000000000ffffffffffff",
        "nonce": "0x76",
        "chainId": "0xaa36a7"
      },
      "additionalContracts": [],
      "isFixedGasLimit": false
    },
    {
      "hash": "0xc6a38c87b1d1f26f0e7b5dae312fabf1d0632eb4072a0a625ffcd74174c53455",
      "transactionType": "CALL",
      "contractName": null,
      "contractAddress": "0x000000000022d473030f116ddee9f6b43ac78ba3",
      "function": "approve(address,address,uint160,uint48)",
      "arguments": [
        "0x58C414Bd85bf1d39985476Dfa5fBd59af356E8f0",
        "0x429ba70129df741B2Ca2a85BC3A2a3328e5c09b4",
        "1461501637330902918203684832716283019655932542975",
        "281474976710655"
      ],
      "transaction": {
        "from": "0xf30180b9cec36f5a3762332c0f102fe8c024d64e",
        "to": "0x000000000022d473030f116ddee9f6b43ac78ba3",
        "gas": "0x96a0",
        "value": "0x0",
        "input": "0x87517c4500000000000000000000000058c414bd85bf1d39985476dfa5fbd59af356e8f0000000000000000000000000429ba70129df741b2ca2a85bc3a2a3328e5c09b4000000000000000000000000ffffffffffffffffffffffffffffffffffffffff0000000000000000000000000000000000000000000000000000ffffffffffff",
        "nonce": "0x77",
        "chainId": "0xaa36a7"
      },
      "additionalContracts": [],
      "isFixedGasLimit": false
    },
    {
      "hash": "0x37e166d3e1c84000378689e11fd2de66753f9706306488e6eae11dfee3e3cdf3",
      "transactionType": "CALL",
      "contractName": null,
      "contractAddress": "0x429ba70129df741b2ca2a85bc3a2a3328e5c09b4",
      "function": "multicall(bytes[])",
      "arguments": [
        "[0xf70204050000000000000000000000002170d1ec7b1392611323a4c1793e580349cc5cc000000000000000000000000058c414bd85bf1d39985476dfa5fbd59af356e8f00000000000000000000000000000000000000000000000000000000000800000000000000000000000000000000000000000000000000000000000000000000a000000000000000000000000ba95fbd43960d8c25da4049f4edbdb0b621280c0000000000000000000000000000000000000000100000000000000000000000000000000000000000000000000000000000000000000000000000000000000e00000000000000000000000000000000000000000000000000000000000000000, 0xdd46508f00000000000000000000000000000000000000000000000000000000000000400000000000000000000000000000000000000000000000000000000069ba44880000000000000000000000000000000000000000000000000000000000000400000000000000000000000000000000000000000000000000000000000000004000000000000000000000000000000000000000000000000000000000000000800000000000000000000000000000000000000000000000000000000000000004020d14140000000000000000000000000000000000000000000000000000000000000000000000000000000000000000000000000000000000000000000000040000000000000000000000000000000000000000000000000000000000000080000000000000000000000000000000000000000000000000000000000000024000000000000000000000000000000000000000000000000000000000000002a0000000000000000000000000000000000000000000000000000000000000030000000000000000000000000000000000000000000000000000000000000001a00000000000000000000000002170d1ec7b1392611323a4c1793e580349cc5cc000000000000000000000000058c414bd85bf1d39985476dfa5fbd59af356e8f00000000000000000000000000000000000000000000000000000000000800000000000000000000000000000000000000000000000000000000000000000000a000000000000000000000000ba95fbd43960d8c25da4049f4edbdb0b621280c0fffffffffffffffffffffffffffffffffffffffffffffffffffffffffffffc1800000000000000000000000000000000000000000000000000000000000003e8000000000000000000000000000000000000000000000000000001dd6c50ad7a000000000000000000000000000000000000000000000000000000174876e801000000000000000000000000000000000000000000000000000000174876e801000000000000000000000000f30180b9cec36f5a3762332c0f102fe8c024d64e0000000000000000000000000000000000000000000000000000000000000180000000000000000000000000000000000000000000000000000000000000000000000000000000000000000000000000000000000000000000000000000000400000000000000000000000002170d1ec7b1392611323a4c1793e580349cc5cc000000000000000000000000058c414bd85bf1d39985476dfa5fbd59af356e8f000000000000000000000000000000000000000000000000000000000000000400000000000000000000000002170d1ec7b1392611323a4c1793e580349cc5cc0000000000000000000000000f30180b9cec36f5a3762332c0f102fe8c024d64e000000000000000000000000000000000000000000000000000000000000004000000000000000000000000058c414bd85bf1d39985476dfa5fbd59af356e8f0000000000000000000000000f30180b9cec36f5a3762332c0f102fe8c024d64e]"
      ],
      "transaction": {
        "from": "0xf30180b9cec36f5a3762332c0f102fe8c024d64e",
        "to": "0x429ba70129df741b2ca2a85bc3a2a3328e5c09b4",
        "gas": "0x93c08",
        "value": "0x0",
        "input": "0xac9650d800000000000000000000000000000000000000000000000000000000000000200000000000000000000000000000000000000000000000000000000000000002000000000000000000000000000000000000000000000000000000000000004000000000000000000000000000000000000000000000000000000000000001800000000000000000000000000000000000000000000000000000000000000104f70204050000000000000000000000002170d1ec7b1392611323a4c1793e580349cc5cc000000000000000000000000058c414bd85bf1d39985476dfa5fbd59af356e8f00000000000000000000000000000000000000000000000000000000000800000000000000000000000000000000000000000000000000000000000000000000a000000000000000000000000ba95fbd43960d8c25da4049f4edbdb0b621280c0000000000000000000000000000000000000000100000000000000000000000000000000000000000000000000000000000000000000000000000000000000e00000000000000000000000000000000000000000000000000000000000000000000000000000000000000000000000000000000000000000000000000000000000000000000000000000000000000000000000000000000000000464dd46508f00000000000000000000000000000000000000000000000000000000000000400000000000000000000000000000000000000000000000000000000069ba44880000000000000000000000000000000000000000000000000000000000000400000000000000000000000000000000000000000000000000000000000000004000000000000000000000000000000000000000000000000000000000000000800000000000000000000000000000000000000000000000000000000000000004020d14140000000000000000000000000000000000000000000000000000000000000000000000000000000000000000000000000000000000000000000000040000000000000000000000000000000000000000000000000000000000000080000000000000000000000000000000000000000000000000000000000000024000000000000000000000000000000000000000000000000000000000000002a0000000000000000000000000000000000000000000000000000000000000030000000000000000000000000000000000000000000000000000000000000001a00000000000000000000000002170d1ec7b1392611323a4c1793e580349cc5cc000000000000000000000000058c414bd85bf1d39985476dfa5fbd59af356e8f00000000000000000000000000000000000000000000000000000000000800000000000000000000000000000000000000000000000000000000000000000000a000000000000000000000000ba95fbd43960d8c25da4049f4edbdb0b621280c0fffffffffffffffffffffffffffffffffffffffffffffffffffffffffffffc1800000000000000000000000000000000000000000000000000000000000003e8000000000000000000000000000000000000000000000000000001dd6c50ad7a000000000000000000000000000000000000000000000000000000174876e801000000000000000000000000000000000000000000000000000000174876e801000000000000000000000000f30180b9cec36f5a3762332c0f102fe8c024d64e0000000000000000000000000000000000000000000000000000000000000180000000000000000000000000000000000000000000000000000000000000000000000000000000000000000000000000000000000000000000000000000000400000000000000000000000002170d1ec7b1392611323a4c1793e580349cc5cc000000000000000000000000058c414bd85bf1d39985476dfa5fbd59af356e8f000000000000000000000000000000000000000000000000000000000000000400000000000000000000000002170d1ec7b1392611323a4c1793e580349cc5cc0000000000000000000000000f30180b9cec36f5a3762332c0f102fe8c024d64e000000000000000000000000000000000000000000000000000000000000004000000000000000000000000058c414bd85bf1d39985476dfa5fbd59af356e8f0000000000000000000000000f30180b9cec36f5a3762332c0f102fe8c024d64e00000000000000000000000000000000000000000000000000000000",
        "nonce": "0x78",
        "chainId": "0xaa36a7"
      },
      "additionalContracts": [],
      "isFixedGasLimit": false
    }
  ],
  "receipts": [
    {
      "status": "0x1",
      "cumulativeGasUsed": "0xb7f652",
      "logs": [
        {
          "address": "0x58c414bd85bf1d39985476dfa5fbd59af356e8f0",
          "topics": [
            "0xddf252ad1be2c89b69c2b068fc378daa952ba7f163c4a11628f55a4df523b3ef",
            "0x0000000000000000000000000000000000000000000000000000000000000000",
            "0x000000000000000000000000f30180b9cec36f5a3762332c0f102fe8c024d64e"
          ],
          "data": "0x000000000000000000000000000000000000000000000000000000178411b200",
          "blockHash": "0xa652f6a4af4ddc63dada3b091c438368c73950f0653ca753d595b0e245bc8b4d",
          "blockNumber": "0x9fbaef",
          "blockTimestamp": "0x69ba36b4",
          "transactionHash": "0x657690c473f568b54af7b9d7678ab51eb2a0c385ee6a9baf12e4db20ad890071",
          "transactionIndex": "0x6e",
          "logIndex": "0xf6",
          "removed": false
        }
      ],
      "logsBloom": "0x00000000000000000000000000000000000000000000000000000000000000000000000000000000000000000000004000000000000000000000000000000000000000000000000000000008000000000000000000000000000000000000000000000000020000000000000000000800000000000000000000000010000000000000000000000000000000000040000000000000000000000000000000000000000000000040000000000000000000000000002000000000000000000000000000008002000000000000000000000000000000000000000000000000000020000000800000000000000000000000000000000000000000000000000000000000",
      "type": "0x2",
      "transactionHash": "0x657690c473f568b54af7b9d7678ab51eb2a0c385ee6a9baf12e4db20ad890071",
      "transactionIndex": "0x6e",
      "blockHash": "0xa652f6a4af4ddc63dada3b091c438368c73950f0653ca753d595b0e245bc8b4d",
      "blockNumber": "0x9fbaef",
      "gasUsed": "0x870a",
      "effectiveGasPrice": "0xf424a",
      "from": "0xf30180b9cec36f5a3762332c0f102fe8c024d64e",
      "to": "0x58c414bd85bf1d39985476dfa5fbd59af356e8f0",
      "contractAddress": null
    },
    {
      "status": "0x1",
      "cumulativeGasUsed": "0xb87d5c",
      "logs": [
        {
          "address": "0x2170d1ec7b1392611323a4c1793e580349cc5cc0",
          "topics": [
            "0xddf252ad1be2c89b69c2b068fc378daa952ba7f163c4a11628f55a4df523b3ef",
            "0x0000000000000000000000000000000000000000000000000000000000000000",
            "0x000000000000000000000000f30180b9cec36f5a3762332c0f102fe8c024d64e"
          ],
          "data": "0x000000000000000000000000000000000000000000000000000000178411b200",
          "blockHash": "0xa652f6a4af4ddc63dada3b091c438368c73950f0653ca753d595b0e245bc8b4d",
          "blockNumber": "0x9fbaef",
          "blockTimestamp": "0x69ba36b4",
          "transactionHash": "0x02ecbd725f3500908d637080045c83f664b539f699f63fd9c8055f24edf167f7",
          "transactionIndex": "0x6f",
          "logIndex": "0xf7",
          "removed": false
        }
      ],
      "logsBloom": "0x00000000000000000000000000000000000000000000000000001000000000010000000000000000000000000000004000000000000000000000000000000000000000000000000000000008000000000000000000000000000000000000000000000000020000000000000000000800000000000000000000000010000000000000000000000000000000000040000000000080000000000000000000000000000000000000000000000000000000000000000000000000000000000000000000008002000000000000000000000000000000000000000000000000000020000000000000000000000000000000000000000000000000000000000000000000",
      "type": "0x2",
      "transactionHash": "0x02ecbd725f3500908d637080045c83f664b539f699f63fd9c8055f24edf167f7",
      "transactionIndex": "0x6f",
      "blockHash": "0xa652f6a4af4ddc63dada3b091c438368c73950f0653ca753d595b0e245bc8b4d",
      "blockNumber": "0x9fbaef",
      "gasUsed": "0x870a",
      "effectiveGasPrice": "0xf424a",
      "from": "0xf30180b9cec36f5a3762332c0f102fe8c024d64e",
      "to": "0x2170d1ec7b1392611323a4c1793e580349cc5cc0",
      "contractAddress": null
    },
    {
      "status": "0x1",
      "cumulativeGasUsed": "0xb8e712",
      "logs": [
        {
          "address": "0x2170d1ec7b1392611323a4c1793e580349cc5cc0",
          "topics": [
            "0x8c5be1e5ebec7d5bd14f71427d1e84f3dd0314c0f7b2291e5b200ac8c7c3b925",
            "0x000000000000000000000000f30180b9cec36f5a3762332c0f102fe8c024d64e",
            "0x000000000000000000000000000000000022d473030f116ddee9f6b43ac78ba3"
          ],
          "data": "0xffffffffffffffffffffffffffffffffffffffffffffffffffffffffffffffff",
          "blockHash": "0xa652f6a4af4ddc63dada3b091c438368c73950f0653ca753d595b0e245bc8b4d",
          "blockNumber": "0x9fbaef",
          "blockTimestamp": "0x69ba36b4",
          "transactionHash": "0x43403fcf464fce0c5750e6437d7eed8f7e62333b20841fccdaf135bb04131ec2",
          "transactionIndex": "0x70",
          "logIndex": "0xf8",
          "removed": false
        }
      ],
      "logsBloom": "0x00000000000000000000000000000000000000000000000000001000000000010000000000000000000000000000004000000000800000000000000000200000000000000000000000004000000000000000000000000800000000000000000000000000000000000000000000000000000000000000000000000000000000000000000000000000000000000040000000000080000000000000000000000000020000000000000000000000000000000000000000000000000000000000000000008000000000000000000000000000000000000000000000000000000000000010000000000000000000000000000000000000000000000000000000000000",
      "type": "0x2",
      "transactionHash": "0x43403fcf464fce0c5750e6437d7eed8f7e62333b20841fccdaf135bb04131ec2",
      "transactionIndex": "0x70",
      "blockHash": "0xa652f6a4af4ddc63dada3b091c438368c73950f0653ca753d595b0e245bc8b4d",
      "blockNumber": "0x9fbaef",
      "gasUsed": "0x69b6",
      "effectiveGasPrice": "0xf424a",
      "from": "0xf30180b9cec36f5a3762332c0f102fe8c024d64e",
      "to": "0x2170d1ec7b1392611323a4c1793e580349cc5cc0",
      "contractAddress": null
    },
    {
      "status": "0x1",
      "cumulativeGasUsed": "0xb950c8",
      "logs": [
        {
          "address": "0x58c414bd85bf1d39985476dfa5fbd59af356e8f0",
          "topics": [
            "0x8c5be1e5ebec7d5bd14f71427d1e84f3dd0314c0f7b2291e5b200ac8c7c3b925",
            "0x000000000000000000000000f30180b9cec36f5a3762332c0f102fe8c024d64e",
            "0x000000000000000000000000000000000022d473030f116ddee9f6b43ac78ba3"
          ],
          "data": "0xffffffffffffffffffffffffffffffffffffffffffffffffffffffffffffffff",
          "blockHash": "0xa652f6a4af4ddc63dada3b091c438368c73950f0653ca753d595b0e245bc8b4d",
          "blockNumber": "0x9fbaef",
          "blockTimestamp": "0x69ba36b4",
          "transactionHash": "0xc6a38c87b1d1f26f0e7b5dae312fabf1d0632eb4072a0a625ffcd74174c53455",
          "transactionIndex": "0x71",
          "logIndex": "0xf9",
          "removed": false
        }
      ],
      "logsBloom": "0x00000000000000000000000000000000000000000000000000000000000000000000000000000000000000000000004000000000800000000000000000200000000000000000000000004000000000000000000000000800000000000000000000000000000000000000000000000000000000000000000000000000000000000000000000000000000000000040000000000000000000000000000000000000020000000040000000000000000000000000002000000000000000000000000000008000000000000000000000000000000000000000000000000000000000000010800000000000000000000000000000000000000000000000000000000000",
      "type": "0x2",
      "transactionHash": "0xc6a38c87b1d1f26f0e7b5dae312fabf1d0632eb4072a0a625ffcd74174c53455",
      "transactionIndex": "0x71",
      "blockHash": "0xa652f6a4af4ddc63dada3b091c438368c73950f0653ca753d595b0e245bc8b4d",
      "blockNumber": "0x9fbaef",
      "gasUsed": "0x69b6",
      "effectiveGasPrice": "0xf424a",
      "from": "0xf30180b9cec36f5a3762332c0f102fe8c024d64e",
      "to": "0x58c414bd85bf1d39985476dfa5fbd59af356e8f0",
      "contractAddress": null
    },
    {
      "status": "0x1",
      "cumulativeGasUsed": "0xb9bdd6",
      "logs": [
        {
          "address": "0x000000000022d473030f116ddee9f6b43ac78ba3",
          "topics": [
            "0xda9fa7c1b00402c17d0161b249b1ab8bbec047c5a52207b9c112deffd817036b",
            "0x000000000000000000000000f30180b9cec36f5a3762332c0f102fe8c024d64e",
            "0x0000000000000000000000002170d1ec7b1392611323a4c1793e580349cc5cc0",
            "0x000000000000000000000000429ba70129df741b2ca2a85bc3a2a3328e5c09b4"
          ],
          "data": "0x000000000000000000000000ffffffffffffffffffffffffffffffffffffffff0000000000000000000000000000000000000000000000000000ffffffffffff",
          "blockHash": "0xa652f6a4af4ddc63dada3b091c438368c73950f0653ca753d595b0e245bc8b4d",
          "blockNumber": "0x9fbaef",
          "blockTimestamp": "0x69ba36b4",
          "transactionHash": "0x70f3a296078df556ea3d9729c3e2fadd8bec737e66c36a5f97f50ae4d6ba0c39",
          "transactionIndex": "0x72",
          "logIndex": "0xfa",
          "removed": false
        }
      ],
      "logsBloom": "0x00010000000000000000000000000000000000000000000000000000000000000000000000000040880000000000004000000000000000000000000000080000000000000000000000000000000000000000000000000000000000000000000000000000000000000000000000000000000000000000000000000800000100000020000000000000000000000040000000000000000000000000000000000000000000000000000000000000000000000000000000000000000000080000000000008000000000000000000000020000000000000000000040000000000000000000000000000000000000000000000000000000000000000000000000000400",
      "type": "0x2",
      "transactionHash": "0x70f3a296078df556ea3d9729c3e2fadd8bec737e66c36a5f97f50ae4d6ba0c39",
      "transactionIndex": "0x72",
      "blockHash": "0xa652f6a4af4ddc63dada3b091c438368c73950f0653ca753d595b0e245bc8b4d",
      "blockNumber": "0x9fbaef",
      "gasUsed": "0x6d0e",
      "effectiveGasPrice": "0xf424a",
      "from": "0xf30180b9cec36f5a3762332c0f102fe8c024d64e",
      "to": "0x000000000022d473030f116ddee9f6b43ac78ba3",
      "contractAddress": null
    },
    {
      "status": "0x1",
      "cumulativeGasUsed": "0xba2ae4",
      "logs": [
        {
          "address": "0x000000000022d473030f116ddee9f6b43ac78ba3",
          "topics": [
            "0xda9fa7c1b00402c17d0161b249b1ab8bbec047c5a52207b9c112deffd817036b",
            "0x000000000000000000000000f30180b9cec36f5a3762332c0f102fe8c024d64e",
            "0x00000000000000000000000058c414bd85bf1d39985476dfa5fbd59af356e8f0",
            "0x000000000000000000000000429ba70129df741b2ca2a85bc3a2a3328e5c09b4"
          ],
          "data": "0x000000000000000000000000ffffffffffffffffffffffffffffffffffffffff0000000000000000000000000000000000000000000000000000ffffffffffff",
          "blockHash": "0xa652f6a4af4ddc63dada3b091c438368c73950f0653ca753d595b0e245bc8b4d",
          "blockNumber": "0x9fbaef",
          "blockTimestamp": "0x69ba36b4",
          "transactionHash": "0x37e166d3e1c84000378689e11fd2de66753f9706306488e6eae11dfee3e3cdf3",
          "transactionIndex": "0x73",
          "logIndex": "0xfb",
          "removed": false
        }
      ],
      "logsBloom": "0x00010000000000000000000000000000002000000000000000000000000000000000000000000040080000000000004080000000000000000000000000080000000000000000000000000000000000000000000000000000000000000000000000000000000000000000000000000000000000000000000000000800000000000020000000000000000000000040000000000000000000000000000000000000000000000000000000000000000000004000000000000000000000080000000000008000000000000000000000000000000000000000000040000000000000000000000000000000000000000000000000000000000000000000000000000400",
      "type": "0x2",
      "transactionHash": "0x37e166d3e1c84000378689e11fd2de66753f9706306488e6eae11dfee3e3cdf3",
      "transactionIndex": "0x73",
      "blockHash": "0xa652f6a4af4ddc63dada3b091c438368c73950f0653ca753d595b0e245bc8b4d",
      "blockNumber": "0x9fbaef",
      "gasUsed": "0x6d0e",
      "effectiveGasPrice": "0xf424a",
      "from": "0xf30180b9cec36f5a3762332c0f102fe8c024d64e",
      "to": "0x000000000022d473030f116ddee9f6b43ac78ba3",
      "contractAddress": null
    },
    {
      "status": "0x1",
      "cumulativeGasUsed": "0xc0da69",
      "logs": [
        {
          "address": "0xe03a1074c86cfedd5c142c4f04f1a1536e203543",
          "topics": [
            "0xdd466e674ea557f56295e2d0218a125ea4b4f0f6f3307b95f85e6110838d6438",
            "0x50ca33f4a2d286a7b1fa6ce3c735a0ca4d5c8f725123c5edc12e773c679d917b",
            "0x0000000000000000000000002170d1ec7b1392611323a4c1793e580349cc5cc0",
            "0x00000000000000000000000058c414bd85bf1d39985476dfa5fbd59af356e8f0"
          ],
          "data": "0x0000000000000000000000000000000000000000000000000000000000800000000000000000000000000000000000000000000000000000000000000000000a000000000000000000000000ba95fbd43960d8c25da4049f4edbdb0b621280c000000000000000000000000000000000000000010000000000000000000000000000000000000000000000000000000000000000000000000000000000000000",
          "blockHash": "0xa652f6a4af4ddc63dada3b091c438368c73950f0653ca753d595b0e245bc8b4d",
          "blockNumber": "0x9fbaef",
          "blockTimestamp": "0x69ba36b4",
          "transactionHash": "0x409d24346529c6cffe5d672f4438e24b535c7c82ca1ddeb5a80db56c6e9c43b8",
          "transactionIndex": "0x74",
          "logIndex": "0xfc",
          "removed": false
        },
        {
          "address": "0x429ba70129df741b2ca2a85bc3a2a3328e5c09b4",
          "topics": [
            "0xddf252ad1be2c89b69c2b068fc378daa952ba7f163c4a11628f55a4df523b3ef",
            "0x0000000000000000000000000000000000000000000000000000000000000000",
            "0x000000000000000000000000f30180b9cec36f5a3762332c0f102fe8c024d64e",
            "0x0000000000000000000000000000000000000000000000000000000000006125"
          ],
          "data": "0x",
          "blockHash": "0xa652f6a4af4ddc63dada3b091c438368c73950f0653ca753d595b0e245bc8b4d",
          "blockNumber": "0x9fbaef",
          "blockTimestamp": "0x69ba36b4",
          "transactionHash": "0x409d24346529c6cffe5d672f4438e24b535c7c82ca1ddeb5a80db56c6e9c43b8",
          "transactionIndex": "0x74",
          "logIndex": "0xfd",
          "removed": false
        },
        {
          "address": "0xe03a1074c86cfedd5c142c4f04f1a1536e203543",
          "topics": [
            "0xf208f4912782fd25c7f114ca3723a2d5dd6f3bcc3ac8db5af63baa85f711d5ec",
            "0x50ca33f4a2d286a7b1fa6ce3c735a0ca4d5c8f725123c5edc12e773c679d917b",
            "0x000000000000000000000000429ba70129df741b2ca2a85bc3a2a3328e5c09b4"
          ],
          "data": "0xfffffffffffffffffffffffffffffffffffffffffffffffffffffffffffffc1800000000000000000000000000000000000000000000000000000000000003e8000000000000000000000000000000000000000000000000000001dd6c50ad7a0000000000000000000000000000000000000000000000000000000000006125",
          "blockHash": "0xa652f6a4af4ddc63dada3b091c438368c73950f0653ca753d595b0e245bc8b4d",
          "blockNumber": "0x9fbaef",
          "blockTimestamp": "0x69ba36b4",
          "transactionHash": "0x409d24346529c6cffe5d672f4438e24b535c7c82ca1ddeb5a80db56c6e9c43b8",
          "transactionIndex": "0x74",
          "logIndex": "0xfe",
          "removed": false
        },
        {
          "address": "0x2170d1ec7b1392611323a4c1793e580349cc5cc0",
          "topics": [
            "0xddf252ad1be2c89b69c2b068fc378daa952ba7f163c4a11628f55a4df523b3ef",
            "0x000000000000000000000000f30180b9cec36f5a3762332c0f102fe8c024d64e",
            "0x000000000000000000000000e03a1074c86cfedd5c142c4f04f1a1536e203543"
          ],
          "data": "0x000000000000000000000000000000000000000000000000000000174876e800",
          "blockHash": "0xa652f6a4af4ddc63dada3b091c438368c73950f0653ca753d595b0e245bc8b4d",
          "blockNumber": "0x9fbaef",
          "blockTimestamp": "0x69ba36b4",
          "transactionHash": "0x409d24346529c6cffe5d672f4438e24b535c7c82ca1ddeb5a80db56c6e9c43b8",
          "transactionIndex": "0x74",
          "logIndex": "0xff",
          "removed": false
        },
        {
          "address": "0x58c414bd85bf1d39985476dfa5fbd59af356e8f0",
          "topics": [
            "0xddf252ad1be2c89b69c2b068fc378daa952ba7f163c4a11628f55a4df523b3ef",
            "0x000000000000000000000000f30180b9cec36f5a3762332c0f102fe8c024d64e",
            "0x000000000000000000000000e03a1074c86cfedd5c142c4f04f1a1536e203543"
          ],
          "data": "0x000000000000000000000000000000000000000000000000000000174876e800",
          "blockHash": "0xa652f6a4af4ddc63dada3b091c438368c73950f0653ca753d595b0e245bc8b4d",
          "blockNumber": "0x9fbaef",
          "blockTimestamp": "0x69ba36b4",
          "transactionHash": "0x409d24346529c6cffe5d672f4438e24b535c7c82ca1ddeb5a80db56c6e9c43b8",
          "transactionIndex": "0x74",
          "logIndex": "0x100",
          "removed": false
        }
      ],
      "logsBloom": "0x00000000000000000000001000000000002000000000000000001000080000010000000000000040880000000000004080000100000000000000000000004040000000000000000000000008000000000000000000000000000000000000000000000000020000000000000080000800000000000000100000000810000100000000000001000008000010000040002000000081000000000000000000200000000004000040000000000000000000004000002000400000000000000000000000088002000000000000000000020000000000000000000000001000002020001000800000000000080000000000000004000000000000000000000000000000",
      "type": "0x2",
      "transactionHash": "0x409d24346529c6cffe5d672f4438e24b535c7c82ca1ddeb5a80db56c6e9c43b8",
      "transactionIndex": "0x74",
      "blockHash": "0xa652f6a4af4ddc63dada3b091c438368c73950f0653ca753d595b0e245bc8b4d",
      "blockNumber": "0x9fbaef",
      "gasUsed": "0x6af85",
      "effectiveGasPrice": "0xf424a",
      "from": "0xf30180b9cec36f5a3762332c0f102fe8c024d64e",
      "to": "0x429ba70129df741b2ca2a85bc3a2a3328e5c09b4",
      "contractAddress": null
    }
  ],
  "libraries": [],
  "pending": [],
  "returns": {},
  "timestamp": 1773811381710,
  "chain": 11155111,
  "commit": "13d7ddb"
}